{"contracts/YieldFiAdmin.sol":{"YieldFiAdmin":{"abi":[{"inputs":[{"internalType":"address","name":"_ethOracle","type":"address"},{"internalType":"address","name":"_wbtcOracle","type":"address"}],"stateMutability":"nonpayable","type":"constructor"},{"anonymous":false,"inputs":[{"indexed":true,"internalType":"address","name":"reserve","type":"address"},{"indexed":false,"internalType":"uint256","name":"collateralFactor","type":"uint256"}],"name":"CollateralFactorUpdated","type":"event"},{"anonymous":false,"inputs":[{"indexed":true,"internalType":"address","name":"reserve","type":"address"},{"indexed":false,"internalType":"uint256","name":"liquidationThreshold","type":"uint256"}],"name":"LiquidationThresholdUpdated","type":"event"},{"anonymous":false,"inputs":[{"indexed":true,"internalType":"address","name":"reserve","type":"address"},{"indexed":true,"internalType":"address","name":"oracle","type":"address"}],"name":"OracleUpdated","type":"event"},{"anonymous":false,"inputs":[{"indexed":true,"internalType":"address","name":"reserve","type":"address"},{"indexed":false,"internalType":"uint256","name":"reserveFactor","type":"uint256"}],"name":"ReserveFactorUpdated","type":"event"},{"inputs":[],"name":"WAD","outputs":[{"internalType":"uint256","name":"","type":"uint256"}],"stateMutability":"view","type":"function"},{"inputs":[{"internalType":"address","name":"","type":"address"}],"name":"collateralFactors","outputs":[{"internalType":"uint256","name":"","type":"uint256"}],"stateMutability":"view","type":"function"},{"inputs":[{"internalType":"address","name":"","type":"address"}],"name":"liquidationThresholds","outputs":[{"internalType":"uint256","name":"","type":"uint256"}],"stateMutability":"view","type":"function"},{"inputs":[{"internalType":"address","name":"","type":"address"}],"name":"priceOracles","outputs":[{"internalType":"address","name":"","type":"address"}],"stateMutability":"view","type":"function"},{"inputs":[{"internalType":"address","name":"","type":"address"}],"name":"reserveFactors","outputs":[{"internalType":"uint256","name":"","type":"uint256"}],"stateMutability":"view","type":"function"},{"inputs":[{"internalType":"address","name":"_reserve","type":"address"},{"internalType":"uint256","name":"_collateralFactor","type":"uint256"}],"name":"setCollateralFactor","outputs":[],"stateMutability":"nonpayable","type":"function"},{"inputs":[{"internalType":"address","name":"_reserve","type":"address"},{"internalType":"uint256","name":"_liquidationThreshold","type":"uint256"}],"name":"setLiquidationThreshold","outputs":[],"stateMutability":"nonpayable","type":"function"},{"inputs":[{"internalType":"address","name":"_reserve","type":"address"},{"internalType":"address","name":"_oracle","type":"address"}],"name":"setOracle","outputs":[],"stateMutability":"nonpayable","type":"function"},{"inputs":[{"internalType":"address","name":"_reserve","type":"address"},{"internalType":"uint256","name":"_reserveFactor","type":"uint256"}],"name":"setReserveFactor","outputs":[],"stateMutability":"nonpayable","type":"function"}],"evm":{"bytecode":{"linkReferences":{},"object":"608060405234801561001057600080fd5b5060405161063438038061063483398101604081905261002f916100d5565b60036020527fec3d9d28a6dfaaf6fd659465e4dcac30fdca01a34ae4699904795406ba69e39180546001600160a01b039384166001600160a01b031991821617909155712260fac5e5542a773aa44fbcfedf7c11c5996000527f3b23d1e7231764f8e4e3b0ecf143eb6e167230174d88947c9df7f52af2937d0a8054929093169116179055610108565b80516001600160a01b03811681146100d057600080fd5b919050565b600080604083850312156100e857600080fd5b6100f1836100b9565b91506100ff602084016100b9565b90509250929050565b61051d806101176000396000f3fe608060405234801561001057600080fd5b50600436106100935760003560e01c80635c38eb3a116100665780635c38eb3a146101345780636a1460241461014757806378327438146101565780637d0e16bb14610176578063c04f31ff1461019657600080fd5b806301374518146100985780630e30428d146100de5780634b4e6753146100f3578063572d988814610106575b600080fd5b6100c16100a6366004610468565b6003602052600090815260409020546001600160a01b031681565b6040516001600160a01b0390911681526020015b60405180910390f35b6100f16100ec36600461048a565b6101a9565b005b6100f161010136600461048a565b61027d565b610126610114366004610468565b60006020819052908152604090205481565b6040519081526020016100d5565b6100f16101423660046104b4565b610339565b610126670de0b6b3a764000081565b610126610164366004610468565b60016020526000908152604090205481565b610126610184366004610468565b60026020526000908152604090205481565b6100f16101a436600461048a565b610390565b670de0b6b3a76400008111156102245760405162461bcd60e51b815260206004820152603560248201527f4c69717569646174696f6e207468726573686f6c64206d757374206265206c656044820152747373207468616e206f7220657175616c20746f203160581b60648201526084015b60405180910390fd5b6001600160a01b03821660008181526001602052604090819020839055517f6878ed75c44e443b25c5b254964ed8a88f572e4cc8761951cbe3810ba19e2825906102719084815260200190565b60405180910390a25050565b670de0b6b3a76400008111156102ec5760405162461bcd60e51b815260206004820152602e60248201527f5265736572766520666163746f72206d757374206265206c657373207468616e60448201526d206f7220657175616c20746f203160901b606482015260840161021b565b6001600160a01b03821660008181526002602052604090819020839055517fa9e6d8c6a7ceab34e1bbc36191cd138bd9190f9e9e04482afb77cecc652720b6906102719084815260200190565b6001600160a01b0382811660008181526003602052604080822080546001600160a01b0319169486169485179055517f078c3b417dadf69374a59793b829c52001247130433427049317bde56607b1b79190a35050565b670de0b6b3a76400008111156104025760405162461bcd60e51b815260206004820152603160248201527f436f6c6c61746572616c20666163746f72206d757374206265206c657373207460448201527068616e206f7220657175616c20746f203160781b606482015260840161021b565b6001600160a01b0382166000818152602081815260409182902084905590518381527f275d6207ccd4271a12c584febf2bcf32254205dfb4639ce1a9184d2e2609e2d09101610271565b80356001600160a01b038116811461046357600080fd5b919050565b60006020828403121561047a57600080fd5b6104838261044c565b9392505050565b6000806040838503121561049d57600080fd5b6104a68361044c565b946020939093013593505050565b600080604083850312156104c757600080fd5b6104d08361044c565b91506104de6020840161044c565b9050925092905056fea264697066735822122093153ebc2f0fa54d8067c89468be51a24d18125e993864ddf9d59bb90ecd0a6c64736f6c634300080c0033","opcodes":"PUSH1 0x80 PUSH1 0x40 MSTORE CALLVALUE DUP1 ISZERO PUSH2 0x10 JUMPI PUSH1 0x0 DUP1 REVERT JUMPDEST POP PUSH1 0x40 MLOAD PUSH2 0x634 CODESIZE SUB DUP1 PUSH2 0x634 DUP4 CODECOPY DUP2 ADD PUSH1 0x40 DUP2 SWAP1 MSTORE PUSH2 0x2F SWAP2 PUSH2 0xD5 JUMP JUMPDEST PUSH1 0x3 PUSH1 0x20 MSTORE PUSH32 0xEC3D9D28A6DFAAF6FD659465E4DCAC30FDCA01A34AE4699904795406BA69E391 DUP1 SLOAD PUSH1 0x1 PUSH1 0x1 PUSH1 0xA0 SHL SUB SWAP4 DUP5 AND PUSH1 0x1 PUSH1 0x1 PUSH1 0xA0 SHL SUB NOT SWAP2 DUP3 AND OR SWAP1 SWAP2 SSTORE PUSH18 0x2260FAC5E5542A773AA44FBCFEDF7C11C599 PUSH1 0x0 MSTORE PUSH32 0x3B23D1E7231764F8E4E3B0ECF143EB6E167230174D88947C9DF7F52AF2937D0A DUP1 SLOAD SWAP3 SWAP1 SWAP4 AND SWAP2 AND OR SWAP1 SSTORE PUSH2 0x108 JUMP JUMPDEST DUP1 MLOAD PUSH1 0x1 PUSH1 0x1 PUSH1 0xA0 SHL SUB DUP2 AND DUP2 EQ PUSH2 0xD0 JUMPI PUSH1 0x0 DUP1 REVERT JUMPDEST SWAP2 SWAP1 POP JUMP JUMPDEST PUSH1 0x0 DUP1 PUSH1 0x40 DUP4 DUP6 SUB SLT ISZERO PUSH2 0xE8 JUMPI PUSH1 0x0 DUP1 REVERT JUMPDEST PUSH2 0xF1 DUP4 PUSH2 0xB9 JUMP JUMPDEST SWAP2 POP PUSH2 0xFF PUSH1 0x20 DUP5 ADD PUSH2 0xB9 JUMP JUMPDEST SWAP1 POP SWAP3 POP SWAP3 SWAP1 POP JUMP JUMPDEST PUSH2 0x51D DUP1 PUSH2 0x117 PUSH1 0x0 CODECOPY PUSH1 0x0 RETURN INVALID PUSH1 0x80 PUSH1 0x40 MSTORE CALLVALUE DUP1 ISZERO PUSH2 0x10 JUMPI PUSH1 0x0 DUP1 REVERT JUMPDEST POP PUSH1 0x4 CALLDATASIZE LT PUSH2 0x93 JUMPI PUSH1 0x0 CALLDATALOAD PUSH1 0xE0 SHR DUP1 PUSH4 0x5C38EB3A GT PUSH2 0x66 JUMPI DUP1 PUSH4 0x5C38EB3A EQ PUSH2 0x134 JUMPI DUP1 PUSH4 0x6A146024 EQ PUSH2 0x147 JUMPI DUP1 PUSH4 0x78327438 EQ PUSH2 0x156 JUMPI DUP1 PUSH4 0x7D0E16BB EQ PUSH2 0x176 JUMPI DUP1 PUSH4 0xC04F31FF EQ PUSH2 0x196 JUMPI PUSH1 0x0 DUP1 REVERT JUMPDEST DUP1 PUSH4 0x1374518 EQ PUSH2 0x98 JUMPI DUP1 PUSH4 0xE30428D EQ PUSH2 0xDE JUMPI DUP1 PUSH4 0x4B4E6753 EQ PUSH2 0xF3 JUMPI DUP1 PUSH4 0x572D9888 EQ PUSH2 0x106 JUMPI JUMPDEST PUSH1 0x0 DUP1 REVERT JUMPDEST PUSH2 0xC1 PUSH2 0xA6 CALLDATASIZE PUSH1 0x4 PUSH2 0x468 JUMP JUMPDEST PUSH1 0x3 PUSH1 0x20 MSTORE PUSH1 0x0 SWAP1 DUP2 MSTORE PUSH1 0x40 SWAP1 KECCAK256 SLOAD PUSH1 0x1 PUSH1 0x1 PUSH1 0xA0 SHL SUB AND DUP2 JUMP JUMPDEST PUSH1 0x40 MLOAD PUSH1 0x1 PUSH1 0x1 PUSH1 0xA0 SHL SUB SWAP1 SWAP2 AND DUP2 MSTORE PUSH1 0x20 ADD JUMPDEST PUSH1 0x40 MLOAD DUP1 SWAP2 SUB SWAP1 RETURN JUMPDEST PUSH2 0xF1 PUSH2 0xEC CALLDATASIZE PUSH1 0x4 PUSH2 0x48A JUMP JUMPDEST PUSH2 0x1A9 JUMP JUMPDEST STOP JUMPDEST PUSH2 0xF1 PUSH2 0x101 CALLDATASIZE PUSH1 0x4 PUSH2 0x48A JUMP JUMPDEST PUSH2 0x27D JUMP JUMPDEST PUSH2 0x126 PUSH2 0x114 CALLDATASIZE PUSH1 0x4 PUSH2 0x468 JUMP JUMPDEST PUSH1 0x0 PUSH1 0x20 DUP2 SWAP1 MSTORE SWAP1 DUP2 MSTORE PUSH1 0x40 SWAP1 KECCAK256 SLOAD DUP2 JUMP JUMPDEST PUSH1 0x40 MLOAD SWAP1 DUP2 MSTORE PUSH1 0x20 ADD PUSH2 0xD5 JUMP JUMPDEST PUSH2 0xF1 PUSH2 0x142 CALLDATASIZE PUSH1 0x4 PUSH2 0x4B4 JUMP JUMPDEST PUSH2 0x339 JUMP JUMPDEST PUSH2 0x126 PUSH8 0xDE0B6B3A7640000 DUP2 JUMP JUMPDEST PUSH2 0x126 PUSH2 0x164 CALLDATASIZE PUSH1 0x4 PUSH2 0x468 JUMP JUMPDEST PUSH1 0x1 PUSH1 0x20 MSTORE PUSH1 0x0 SWAP1 DUP2 MSTORE PUSH1 0x40 SWAP1 KECCAK256 SLOAD DUP2 JUMP JUMPDEST PUSH2 0x126 PUSH2 0x184 CALLDATASIZE PUSH1 0x4 PUSH2 0x468 JUMP JUMPDEST PUSH1 0x2 PUSH1 0x20 MSTORE PUSH1 0x0 SWAP1 DUP2 MSTORE PUSH1 0x40 SWAP1 KECCAK256 SLOAD DUP2 JUMP JUMPDEST PUSH2 0xF1 PUSH2 0x1A4 CALLDATASIZE PUSH1 0x4 PUSH2 0x48A JUMP JUMPDEST PUSH2 0x390 JUMP JUMPDEST PUSH8 0xDE0B6B3A7640000 DUP2 GT ISZERO PUSH2 0x224 JUMPI PUSH1 0x40 MLOAD PUSH3 0x461BCD PUSH1 0xE5 SHL DUP2 MSTORE PUSH1 0x20 PUSH1 0x4 DUP3 ADD MSTORE PUSH1 0x35 PUSH1 0x24 DUP3 ADD MSTORE PUSH32 0x4C69717569646174696F6E207468726573686F6C64206D757374206265206C65 PUSH1 0x44 DUP3 ADD MSTORE PUSH21 0x7373207468616E206F7220657175616C20746F2031 PUSH1 0x58 SHL PUSH1 0x64 DUP3 ADD MSTORE PUSH1 0x84 ADD JUMPDEST PUSH1 0x40 MLOAD DUP1 SWAP2 SUB SWAP1 REVERT JUMPDEST PUSH1 0x1 PUSH1 0x1 PUSH1 0xA0 SHL SUB DUP3 AND PUSH1 0x0 DUP2 DUP2 MSTORE PUSH1 0x1 PUSH1 0x20 MSTORE PUSH1 0x40 SWAP1 DUP2 SWAP1 KECCAK256 DUP4 SWAP1 SSTORE MLOAD PUSH32 0x6878ED75C44E443B25C5B254964ED8A88F572E4CC8761951CBE3810BA19E2825 SWAP1 PUSH2 0x271 SWAP1 DUP5 DUP2 MSTORE PUSH1 0x20 ADD SWAP1 JUMP JUMPDEST PUSH1 0x40 MLOAD DUP1 SWAP2 SUB SWAP1 LOG2 POP POP JUMP JUMPDEST PUSH8 0xDE0B6B3A7640000 DUP2 GT ISZERO PUSH2 0x2EC JUMPI PUSH1 0x40 MLOAD PUSH3 0x461BCD PUSH1 0xE5 SHL DUP2 MSTORE PUSH1 0x20 PUSH1 0x4 DUP3 ADD MSTORE PUSH1 0x2E PUSH1 0x24 DUP3 ADD MSTORE PUSH32 0x5265736572766520666163746F72206D757374206265206C657373207468616E PUSH1 0x44 DUP3 ADD MSTORE PUSH14 0x206F7220657175616C20746F2031 PUSH1 0x90 SHL PUSH1 0x64 DUP3 ADD MSTORE PUSH1 0x84 ADD PUSH2 0x21B JUMP JUMPDEST PUSH1 0x1 PUSH1 0x1 PUSH1 0xA0 SHL SUB DUP3 AND PUSH1 0x0 DUP2 DUP2 MSTORE PUSH1 0x2 PUSH1 0x20 MSTORE PUSH1 0x40 SWAP1 DUP2 SWAP1 KECCAK256 DUP4 SWAP1 SSTORE MLOAD PUSH32 0xA9E6D8C6A7CEAB34E1BBC36191CD138BD9190F9E9E04482AFB77CECC652720B6 SWAP1 PUSH2 0x271 SWAP1 DUP5 DUP2 MSTORE PUSH1 0x20 ADD SWAP1 JUMP JUMPDEST PUSH1 0x1 PUSH1 0x1 PUSH1 0xA0 SHL SUB DUP3 DUP2 AND PUSH1 0x0 DUP2 DUP2 MSTORE PUSH1 0x3 PUSH1 0x20 MSTORE PUSH1 0x40 DUP1 DUP3 KECCAK256 DUP1 SLOAD PUSH1 0x1 PUSH1 0x1 PUSH1 0xA0 SHL SUB NOT AND SWAP5 DUP7 AND SWAP5 DUP6 OR SWAP1 SSTORE MLOAD PUSH32 0x78C3B417DADF69374A59793B829C52001247130433427049317BDE56607B1B7 SWAP2 SWAP1 LOG3 POP POP JUMP JUMPDEST PUSH8 0xDE0B6B3A7640000 DUP2 GT ISZERO PUSH2 0x402 JUMPI PUSH1 0x40 MLOAD PUSH3 0x461BCD PUSH1 0xE5 SHL DUP2 MSTORE PUSH1 0x20 PUSH1 0x4 DUP3 ADD MSTORE PUSH1 0x31 PUSH1 0x24 DUP3 ADD MSTORE PUSH32 0x436F6C6C61746572616C20666163746F72206D757374206265206C6573732074 PUSH1 0x44 DUP3 ADD MSTORE PUSH17 0x68616E206F7220657175616C20746F2031 PUSH1 0x78 SHL PUSH1 0x64 DUP3 ADD MSTORE PUSH1 0x84 ADD PUSH2 0x21B JUMP JUMPDEST PUSH1 0x1 PUSH1 0x1 PUSH1 0xA0 SHL SUB DUP3 AND PUSH1 0x0 DUP2 DUP2 MSTORE PUSH1 0x20 DUP2 DUP2 MSTORE PUSH1 0x40 SWAP2 DUP3 SWAP1 KECCAK256 DUP5 SWAP1 SSTORE SWAP1 MLOAD DUP4 DUP2 MSTORE PUSH32 0x275D6207CCD4271A12C584FEBF2BCF32254205DFB4639CE1A9184D2E2609E2D0 SWAP2 ADD PUSH2 0x271 JUMP JUMPDEST DUP1 CALLDATALOAD PUSH1 0x1 PUSH1 0x1 PUSH1 0xA0 SHL SUB DUP2 AND DUP2 EQ PUSH2 0x463 JUMPI PUSH1 0x0 DUP1 REVERT JUMPDEST SWAP2 SWAP1 POP JUMP JUMPDEST PUSH1 0x0 PUSH1 0x20 DUP3 DUP5 SUB SLT ISZERO PUSH2 0x47A JUMPI PUSH1 0x0 DUP1 REVERT JUMPDEST PUSH2 0x483 DUP3 PUSH2 0x44C JUMP JUMPDEST SWAP4 SWAP3 POP POP POP JUMP JUMPDEST PUSH1 0x0 DUP1 PUSH1 0x40 DUP4 DUP6 SUB SLT ISZERO PUSH2 0x49D JUMPI PUSH1 0x0 DUP1 REVERT JUMPDEST PUSH2 0x4A6 DUP4 PUSH2 0x44C JUMP JUMPDEST SWAP5 PUSH1 0x20 SWAP4 SWAP1 SWAP4 ADD CALLDATALOAD SWAP4 POP POP POP JUMP JUMPDEST PUSH1 0x0 DUP1 PUSH1 0x40 DUP4 DUP6 SUB SLT ISZERO PUSH2 0x4C7 JUMPI PUSH1 0x0 DUP1 REVERT JUMPDEST PUSH2 0x4D0 DUP4 PUSH2 0x44C JUMP JUMPDEST SWAP2 POP PUSH2 0x4DE PUSH1 0x20 DUP5 ADD PUSH2 0x44C JUMP JUMPDEST SWAP1 POP SWAP3 POP SWAP3 SWAP1 POP JUMP INVALID LOG2 PUSH5 0x6970667358 0x22 SLT KECCAK256 SWAP4 ISZERO RETURNDATACOPY 0xBC 0x2F 0xF 0xA5 0x4D DUP1 PUSH8 0xC89468BE51A24D18 SLT 0x5E SWAP10 CODESIZE PUSH5 0xDDF9D59BB9 0xE 0xCD EXP PUSH13 0x64736F6C634300080C00330000 "},"methodIdentifiers":{"WAD()":"6a146024","collateralFactors(address)":"572d9888","liquidationThresholds(address)":"78327438","priceOracles(address)":"01374518","reserveFactors(address)":"7d0e16bb","setCollateralFactor(address,uint256)":"c04f31ff","setLiquidationThreshold(address,uint256)":"0e30428d","setOracle(address,address)":"5c38eb3a","setReserveFactor(address,uint256)":"4b4e6753"}}}}}