{"contracts/YieldFiCalculations.sol":{"YieldFiCalculations":{"abi":[{"inputs":[{"internalType":"contract YieldFiCollateral","name":"_collateral","type":"address"},{"internalType":"contract YieldFiFlashLoan","name":"_flashLoan","type":"address"},{"internalType":"contract YieldFiAdmin","name":"_admin","type":"address"}],"stateMutability":"nonpayable","type":"constructor"},{"inputs":[],"name":"WADNew","outputs":[{"internalType":"uint256","name":"","type":"uint256"}],"stateMutability":"view","type":"function"},{"inputs":[{"internalType":"address","name":"_reserve","type":"address"},{"internalType":"address","name":"_collateral","type":"address"},{"internalType":"uint256","name":"_debtToCover","type":"uint256"}],"name":"calculateCollateralAmountToSeize","outputs":[{"internalType":"uint256","name":"","type":"uint256"}],"stateMutability":"view","type":"function"},{"inputs":[{"internalType":"address","name":"_user","type":"address"}],"name":"calculateHealthFactor","outputs":[{"internalType":"uint256","name":"","type":"uint256"}],"stateMutability":"view","type":"function"},{"inputs":[{"internalType":"address","name":"","type":"address"}],"name":"cumulatedLiquidityIndex","outputs":[{"internalType":"uint256","name":"","type":"uint256"}],"stateMutability":"view","type":"function"},{"inputs":[{"internalType":"address","name":"","type":"address"},{"internalType":"address","name":"","type":"address"}],"name":"scaledUserBalance","outputs":[{"internalType":"uint256","name":"","type":"uint256"}],"stateMutability":"view","type":"function"},{"inputs":[],"name":"yieldFiAdminInterface","outputs":[{"internalType":"contract YieldFiAdmin","name":"","type":"address"}],"stateMutability":"view","type":"function"},{"inputs":[],"name":"yieldFiCollateralInterface","outputs":[{"internalType":"contract YieldFiCollateral","name":"","type":"address"}],"stateMutability":"view","type":"function"},{"inputs":[],"name":"yieldFiFlashLoanInterface","outputs":[{"internalType":"contract YieldFiFlashLoan","name":"","type":"address"}],"stateMutability":"view","type":"function"}],"evm":{"bytecode":{"linkReferences":{},"object":"608060405234801561001057600080fd5b50604051610d09380380610d0983398101604081905261002f91610089565b600080546001600160a01b039485166001600160a01b0319918216179091556001805493851693821693909317909255600280549190931691161790556100d6565b6001600160a01b038116811461008657600080fd5b50565b60008060006060848603121561009e57600080fd5b83516100a981610071565b60208501519093506100ba81610071565b60408501519092506100cb81610071565b809150509250925092565b610c24806100e56000396000f3fe608060405234801561001057600080fd5b50600436106100885760003560e01c80639b925dfd1161005b5780639b925dfd146101185780639ce625f71461012b578063b49bbd601461013e578063bcfa3b651461015157600080fd5b806327f94dd81461008d5780633b2a5da8146100af5780634cff1e15146100da57806351702ad1146100ed575b600080fd5b61009c670de0b6b3a764000081565b6040519081526020015b60405180910390f35b6002546100c2906001600160a01b031681565b6040516001600160a01b0390911681526020016100a6565b6001546100c2906001600160a01b031681565b61009c6100fb3660046107f0565b600360209081526000928352604080842090915290825290205481565b6000546100c2906001600160a01b031681565b61009c610139366004610829565b610171565b61009c61014c36600461084d565b610310565b61009c61015f366004610829565b60046020526000908152604090205481565b60015460408051636aa701bf60e01b815290516000928392839283926001600160a01b031691636aa701bf91600480830192869291908290030181865afa1580156101c0573d6000803e3d6000fd5b505050506040513d6000823e601f3d908101601f191682016040526101e891908101906108b4565b905060005b81518110156102d857600082828151811061020a5761020a610979565b60209081029190910101516000546040516313ce2dab60e31b81526001600160a01b038a811660048301528084166024830152929350911690639e716d5890604401602060405180830381865afa158015610269573d6000803e3d6000fd5b505050506040513d601f19601f8201168201806040525081019061028d919061098f565b156102ae57600061029e88836104cd565b90506102aa81876109c7565b9550505b6102b887826105ca565b6102c290856109c7565b93505080806102d0906109df565b9150506101ed565b50816102ea5750600019949350505050565b816102fd670de0b6b3a7640000856109fa565b6103079190610a19565b95945050505050565b60008061031c846106f4565b90506000610329866106f4565b90506000856001600160a01b031663313ce5676040518163ffffffff1660e01b8152600401602060405180830381865afa15801561036b573d6000803e3d6000fd5b505050506040513d601f19601f8201168201806040525081019061038f9190610a3b565b60ff1690506000876001600160a01b031663313ce5676040518163ffffffff1660e01b8152600401602060405180830381865afa1580156103d4573d6000803e3d6000fd5b505050506040513d601f19601f820116820180604052508101906103f89190610a3b565b600254604051630f064e8760e31b81526001600160a01b038a8116600483015260ff939093169350600092670de0b6b3a7640000921690637832743890602401602060405180830381865afa158015610455573d6000803e3d6000fd5b505050506040513d601f19601f820116820180604052508101906104799190610a5e565b61048384886109fa565b61048d91906109fa565b61049885600a610b5b565b6104a2878b6109fa565b6104ac91906109fa565b6104b69190610a19565b6104c09190610a19565b9998505050505050505050565b6001600160a01b0380831660009081526003602090815260408083209385168352928152828220546004909152918120549091908261050b856106f4565b600254604051630ae5b31160e31b81526001600160a01b0388811660048301529293506000929091169063572d988890602401602060405180830381865afa15801561055b573d6000803e3d6000fd5b505050506040513d601f19601f8201168201806040525081019061057f9190610a5e565b9050610593670de0b6b3a7640000806109fa565b818361059f86886109fa565b6105a991906109fa565b6105b391906109fa565b6105bd9190610a19565b9450505050505b92915050565b6000805460405163ccdbe8b160e01b81526001600160a01b03858116600483015284811660248301528392169063ccdbe8b190604401602060405180830381865afa15801561061d573d6000803e3d6000fd5b505050506040513d601f19601f820116820180604052508101906106419190610a5e565b600080546040516327673fcd60e11b81526001600160a01b03878116600483015293945091921690634ece7f9a90602401602060405180830381865afa15801561068f573d6000803e3d6000fd5b505050506040513d601f19601f820116820180604052508101906106b39190610a5e565b905060006106c0856106f4565b9050670de0b6b3a7640000816106d684866109fa565b6106e091906109fa565b6106ea9190610a19565b9695505050505050565b6002546040516226e8a360e31b81526001600160a01b0383811660048301526000928392911690630137451890602401602060405180830381865afa158015610741573d6000803e3d6000fd5b505050506040513d601f19601f820116820180604052508101906107659190610b67565b90506000816001600160a01b031663feaf968c6040518163ffffffff1660e01b815260040160a060405180830381865afa1580156107a7573d6000803e3d6000fd5b505050506040513d601f19601f820116820180604052508101906107cb9190610b9e565b5091979650505050505050565b6001600160a01b03811681146107ed57600080fd5b50565b6000806040838503121561080357600080fd5b823561080e816107d8565b9150602083013561081e816107d8565b809150509250929050565b60006020828403121561083b57600080fd5b8135610846816107d8565b9392505050565b60008060006060848603121561086257600080fd5b833561086d816107d8565b9250602084013561087d816107d8565b929592945050506040919091013590565b634e487b7160e01b600052604160045260246000fd5b80516108af816107d8565b919050565b600060208083850312156108c757600080fd5b825167ffffffffffffffff808211156108df57600080fd5b818501915085601f8301126108f357600080fd5b8151818111156109055761090561088e565b8060051b604051601f19603f8301168101818110858211171561092a5761092a61088e565b60405291825284820192508381018501918883111561094857600080fd5b938501935b8285101561096d5761095e856108a4565b8452938501939285019261094d565b98975050505050505050565b634e487b7160e01b600052603260045260246000fd5b6000602082840312156109a157600080fd5b8151801515811461084657600080fd5b634e487b7160e01b600052601160045260246000fd5b600082198211156109da576109da6109b1565b500190565b60006000198214156109f3576109f36109b1565b5060010190565b6000816000190483118215151615610a1457610a146109b1565b500290565b600082610a3657634e487b7160e01b600052601260045260246000fd5b500490565b600060208284031215610a4d57600080fd5b815160ff8116811461084657600080fd5b600060208284031215610a7057600080fd5b5051919050565b600181815b80851115610ab2578160001904821115610a9857610a986109b1565b80851615610aa557918102915b93841c9390800290610a7c565b509250929050565b600082610ac9575060016105c4565b81610ad6575060006105c4565b8160018114610aec5760028114610af657610b12565b60019150506105c4565b60ff841115610b0757610b076109b1565b50506001821b6105c4565b5060208310610133831016604e8410600b8410161715610b35575081810a6105c4565b610b3f8383610a77565b8060001904821115610b5357610b536109b1565b029392505050565b60006108468383610aba565b600060208284031215610b7957600080fd5b8151610846816107d8565b805169ffffffffffffffffffff811681146108af57600080fd5b600080600080600060a08688031215610bb657600080fd5b610bbf86610b84565b9450602086015193506040860151925060608601519150610be260808701610b84565b9050929550929590935056fea2646970667358221220d049d7721e063f6ff9e308e16db6c49f3abaa600c157b72a2e096592785ca4e464736f6c634300080c0033","opcodes":"PUSH1 0x80 PUSH1 0x40 MSTORE CALLVALUE DUP1 ISZERO PUSH2 0x10 JUMPI PUSH1 0x0 DUP1 REVERT JUMPDEST POP PUSH1 0x40 MLOAD PUSH2 0xD09 CODESIZE SUB DUP1 PUSH2 0xD09 DUP4 CODECOPY DUP2 ADD PUSH1 0x40 DUP2 SWAP1 MSTORE PUSH2 0x2F SWAP2 PUSH2 0x89 JUMP JUMPDEST PUSH1 0x0 DUP1 SLOAD PUSH1 0x1 PUSH1 0x1 PUSH1 0xA0 SHL SUB SWAP5 DUP6 AND PUSH1 0x1 PUSH1 0x1 PUSH1 0xA0 SHL SUB NOT SWAP2 DUP3 AND OR SWAP1 SWAP2 SSTORE PUSH1 0x1 DUP1 SLOAD SWAP4 DUP6 AND SWAP4 DUP3 AND SWAP4 SWAP1 SWAP4 OR SWAP1 SWAP3 SSTORE PUSH1 0x2 DUP1 SLOAD SWAP2 SWAP1 SWAP4 AND SWAP2 AND OR SWAP1 SSTORE PUSH2 0xD6 JUMP JUMPDEST PUSH1 0x1 PUSH1 0x1 PUSH1 0xA0 SHL SUB DUP2 AND DUP2 EQ PUSH2 0x86 JUMPI PUSH1 0x0 DUP1 REVERT JUMPDEST POP JUMP JUMPDEST PUSH1 0x0 DUP1 PUSH1 0x0 PUSH1 0x60 DUP5 DUP7 SUB SLT ISZERO PUSH2 0x9E JUMPI PUSH1 0x0 DUP1 REVERT JUMPDEST DUP4 MLOAD PUSH2 0xA9 DUP2 PUSH2 0x71 JUMP JUMPDEST PUSH1 0x20 DUP6 ADD MLOAD SWAP1 SWAP4 POP PUSH2 0xBA DUP2 PUSH2 0x71 JUMP JUMPDEST PUSH1 0x40 DUP6 ADD MLOAD SWAP1 SWAP3 POP PUSH2 0xCB DUP2 PUSH2 0x71 JUMP JUMPDEST DUP1 SWAP2 POP POP SWAP3 POP SWAP3 POP SWAP3 JUMP JUMPDEST PUSH2 0xC24 DUP1 PUSH2 0xE5 PUSH1 0x0 CODECOPY PUSH1 0x0 RETURN INVALID PUSH1 0x80 PUSH1 0x40 MSTORE CALLVALUE DUP1 ISZERO PUSH2 0x10 JUMPI PUSH1 0x0 DUP1 REVERT JUMPDEST POP PUSH1 0x4 CALLDATASIZE LT PUSH2 0x88 JUMPI PUSH1 0x0 CALLDATALOAD PUSH1 0xE0 SHR DUP1 PUSH4 0x9B925DFD GT PUSH2 0x5B JUMPI DUP1 PUSH4 0x9B925DFD EQ PUSH2 0x118 JUMPI DUP1 PUSH4 0x9CE625F7 EQ PUSH2 0x12B JUMPI DUP1 PUSH4 0xB49BBD60 EQ PUSH2 0x13E JUMPI DUP1 PUSH4 0xBCFA3B65 EQ PUSH2 0x151 JUMPI PUSH1 0x0 DUP1 REVERT JUMPDEST DUP1 PUSH4 0x27F94DD8 EQ PUSH2 0x8D JUMPI DUP1 PUSH4 0x3B2A5DA8 EQ PUSH2 0xAF JUMPI DUP1 PUSH4 0x4CFF1E15 EQ PUSH2 0xDA JUMPI DUP1 PUSH4 0x51702AD1 EQ PUSH2 0xED JUMPI JUMPDEST PUSH1 0x0 DUP1 REVERT JUMPDEST PUSH2 0x9C PUSH8 0xDE0B6B3A7640000 DUP2 JUMP JUMPDEST PUSH1 0x40 MLOAD SWAP1 DUP2 MSTORE PUSH1 0x20 ADD JUMPDEST PUSH1 0x40 MLOAD DUP1 SWAP2 SUB SWAP1 RETURN JUMPDEST PUSH1 0x2 SLOAD PUSH2 0xC2 SWAP1 PUSH1 0x1 PUSH1 0x1 PUSH1 0xA0 SHL SUB AND DUP2 JUMP JUMPDEST PUSH1 0x40 MLOAD PUSH1 0x1 PUSH1 0x1 PUSH1 0xA0 SHL SUB SWAP1 SWAP2 AND DUP2 MSTORE PUSH1 0x20 ADD PUSH2 0xA6 JUMP JUMPDEST PUSH1 0x1 SLOAD PUSH2 0xC2 SWAP1 PUSH1 0x1 PUSH1 0x1 PUSH1 0xA0 SHL SUB AND DUP2 JUMP JUMPDEST PUSH2 0x9C PUSH2 0xFB CALLDATASIZE PUSH1 0x4 PUSH2 0x7F0 JUMP JUMPDEST PUSH1 0x3 PUSH1 0x20 SWAP1 DUP2 MSTORE PUSH1 0x0 SWAP3 DUP4 MSTORE PUSH1 0x40 DUP1 DUP5 KECCAK256 SWAP1 SWAP2 MSTORE SWAP1 DUP3 MSTORE SWAP1 KECCAK256 SLOAD DUP2 JUMP JUMPDEST PUSH1 0x0 SLOAD PUSH2 0xC2 SWAP1 PUSH1 0x1 PUSH1 0x1 PUSH1 0xA0 SHL SUB AND DUP2 JUMP JUMPDEST PUSH2 0x9C PUSH2 0x139 CALLDATASIZE PUSH1 0x4 PUSH2 0x829 JUMP JUMPDEST PUSH2 0x171 JUMP JUMPDEST PUSH2 0x9C PUSH2 0x14C CALLDATASIZE PUSH1 0x4 PUSH2 0x84D JUMP JUMPDEST PUSH2 0x310 JUMP JUMPDEST PUSH2 0x9C PUSH2 0x15F CALLDATASIZE PUSH1 0x4 PUSH2 0x829 JUMP JUMPDEST PUSH1 0x4 PUSH1 0x20 MSTORE PUSH1 0x0 SWAP1 DUP2 MSTORE PUSH1 0x40 SWAP1 KECCAK256 SLOAD DUP2 JUMP JUMPDEST PUSH1 0x1 SLOAD PUSH1 0x40 DUP1 MLOAD PUSH4 0x6AA701BF PUSH1 0xE0 SHL DUP2 MSTORE SWAP1 MLOAD PUSH1 0x0 SWAP3 DUP4 SWAP3 DUP4 SWAP3 DUP4 SWAP3 PUSH1 0x1 PUSH1 0x1 PUSH1 0xA0 SHL SUB AND SWAP2 PUSH4 0x6AA701BF SWAP2 PUSH1 0x4 DUP1 DUP4 ADD SWAP3 DUP7 SWAP3 SWAP2 SWAP1 DUP3 SWAP1 SUB ADD DUP2 DUP7 GAS STATICCALL ISZERO DUP1 ISZERO PUSH2 0x1C0 JUMPI RETURNDATASIZE PUSH1 0x0 DUP1 RETURNDATACOPY RETURNDATASIZE PUSH1 0x0 REVERT JUMPDEST POP POP POP POP PUSH1 0x40 MLOAD RETURNDATASIZE PUSH1 0x0 DUP3 RETURNDATACOPY PUSH1 0x1F RETURNDATASIZE SWAP1 DUP2 ADD PUSH1 0x1F NOT AND DUP3 ADD PUSH1 0x40 MSTORE PUSH2 0x1E8 SWAP2 SWAP1 DUP2 ADD SWAP1 PUSH2 0x8B4 JUMP JUMPDEST SWAP1 POP PUSH1 0x0 JUMPDEST DUP2 MLOAD DUP2 LT ISZERO PUSH2 0x2D8 JUMPI PUSH1 0x0 DUP3 DUP3 DUP2 MLOAD DUP2 LT PUSH2 0x20A JUMPI PUSH2 0x20A PUSH2 0x979 JUMP JUMPDEST PUSH1 0x20 SWAP1 DUP2 MUL SWAP2 SWAP1 SWAP2 ADD ADD MLOAD PUSH1 0x0 SLOAD PUSH1 0x40 MLOAD PUSH4 0x13CE2DAB PUSH1 0xE3 SHL DUP2 MSTORE PUSH1 0x1 PUSH1 0x1 PUSH1 0xA0 SHL SUB DUP11 DUP2 AND PUSH1 0x4 DUP4 ADD MSTORE DUP1 DUP5 AND PUSH1 0x24 DUP4 ADD MSTORE SWAP3 SWAP4 POP SWAP2 AND SWAP1 PUSH4 0x9E716D58 SWAP1 PUSH1 0x44 ADD PUSH1 0x20 PUSH1 0x40 MLOAD DUP1 DUP4 SUB DUP2 DUP7 GAS STATICCALL ISZERO DUP1 ISZERO PUSH2 0x269 JUMPI RETURNDATASIZE PUSH1 0x0 DUP1 RETURNDATACOPY RETURNDATASIZE PUSH1 0x0 REVERT JUMPDEST POP POP POP POP PUSH1 0x40 MLOAD RETURNDATASIZE PUSH1 0x1F NOT PUSH1 0x1F DUP3 ADD AND DUP3 ADD DUP1 PUSH1 0x40 MSTORE POP DUP2 ADD SWAP1 PUSH2 0x28D SWAP2 SWAP1 PUSH2 0x98F JUMP JUMPDEST ISZERO PUSH2 0x2AE JUMPI PUSH1 0x0 PUSH2 0x29E DUP9 DUP4 PUSH2 0x4CD JUMP JUMPDEST SWAP1 POP PUSH2 0x2AA DUP2 DUP8 PUSH2 0x9C7 JUMP JUMPDEST SWAP6 POP POP JUMPDEST PUSH2 0x2B8 DUP8 DUP3 PUSH2 0x5CA JUMP JUMPDEST PUSH2 0x2C2 SWAP1 DUP6 PUSH2 0x9C7 JUMP JUMPDEST SWAP4 POP POP DUP1 DUP1 PUSH2 0x2D0 SWAP1 PUSH2 0x9DF JUMP JUMPDEST SWAP2 POP POP PUSH2 0x1ED JUMP JUMPDEST POP DUP2 PUSH2 0x2EA JUMPI POP PUSH1 0x0 NOT SWAP5 SWAP4 POP POP POP POP JUMP JUMPDEST DUP2 PUSH2 0x2FD PUSH8 0xDE0B6B3A7640000 DUP6 PUSH2 0x9FA JUMP JUMPDEST PUSH2 0x307 SWAP2 SWAP1 PUSH2 0xA19 JUMP JUMPDEST SWAP6 SWAP5 POP POP POP POP POP JUMP JUMPDEST PUSH1 0x0 DUP1 PUSH2 0x31C DUP5 PUSH2 0x6F4 JUMP JUMPDEST SWAP1 POP PUSH1 0x0 PUSH2 0x329 DUP7 PUSH2 0x6F4 JUMP JUMPDEST SWAP1 POP PUSH1 0x0 DUP6 PUSH1 0x1 PUSH1 0x1 PUSH1 0xA0 SHL SUB AND PUSH4 0x313CE567 PUSH1 0x40 MLOAD DUP2 PUSH4 0xFFFFFFFF AND PUSH1 0xE0 SHL DUP2 MSTORE PUSH1 0x4 ADD PUSH1 0x20 PUSH1 0x40 MLOAD DUP1 DUP4 SUB DUP2 DUP7 GAS STATICCALL ISZERO DUP1 ISZERO PUSH2 0x36B JUMPI RETURNDATASIZE PUSH1 0x0 DUP1 RETURNDATACOPY RETURNDATASIZE PUSH1 0x0 REVERT JUMPDEST POP POP POP POP PUSH1 0x40 MLOAD RETURNDATASIZE PUSH1 0x1F NOT PUSH1 0x1F DUP3 ADD AND DUP3 ADD DUP1 PUSH1 0x40 MSTORE POP DUP2 ADD SWAP1 PUSH2 0x38F SWAP2 SWAP1 PUSH2 0xA3B JUMP JUMPDEST PUSH1 0xFF AND SWAP1 POP PUSH1 0x0 DUP8 PUSH1 0x1 PUSH1 0x1 PUSH1 0xA0 SHL SUB AND PUSH4 0x313CE567 PUSH1 0x40 MLOAD DUP2 PUSH4 0xFFFFFFFF AND PUSH1 0xE0 SHL DUP2 MSTORE PUSH1 0x4 ADD PUSH1 0x20 PUSH1 0x40 MLOAD DUP1 DUP4 SUB DUP2 DUP7 GAS STATICCALL ISZERO DUP1 ISZERO PUSH2 0x3D4 JUMPI RETURNDATASIZE PUSH1 0x0 DUP1 RETURNDATACOPY RETURNDATASIZE PUSH1 0x0 REVERT JUMPDEST POP POP POP POP PUSH1 0x40 MLOAD RETURNDATASIZE PUSH1 0x1F NOT PUSH1 0x1F DUP3 ADD AND DUP3 ADD DUP1 PUSH1 0x40 MSTORE POP DUP2 ADD SWAP1 PUSH2 0x3F8 SWAP2 SWAP1 PUSH2 0xA3B JUMP JUMPDEST PUSH1 0x2 SLOAD PUSH1 0x40 MLOAD PUSH4 0xF064E87 PUSH1 0xE3 SHL DUP2 MSTORE PUSH1 0x1 PUSH1 0x1 PUSH1 0xA0 SHL SUB DUP11 DUP2 AND PUSH1 0x4 DUP4 ADD MSTORE PUSH1 0xFF SWAP4 SWAP1 SWAP4 AND SWAP4 POP PUSH1 0x0 SWAP3 PUSH8 0xDE0B6B3A7640000 SWAP3 AND SWAP1 PUSH4 0x78327438 SWAP1 PUSH1 0x24 ADD PUSH1 0x20 PUSH1 0x40 MLOAD DUP1 DUP4 SUB DUP2 DUP7 GAS STATICCALL ISZERO DUP1 ISZERO PUSH2 0x455 JUMPI RETURNDATASIZE PUSH1 0x0 DUP1 RETURNDATACOPY RETURNDATASIZE PUSH1 0x0 REVERT JUMPDEST POP POP POP POP PUSH1 0x40 MLOAD RETURNDATASIZE PUSH1 0x1F NOT PUSH1 0x1F DUP3 ADD AND DUP3 ADD DUP1 PUSH1 0x40 MSTORE POP DUP2 ADD SWAP1 PUSH2 0x479 SWAP2 SWAP1 PUSH2 0xA5E JUMP JUMPDEST PUSH2 0x483 DUP5 DUP9 PUSH2 0x9FA JUMP JUMPDEST PUSH2 0x48D SWAP2 SWAP1 PUSH2 0x9FA JUMP JUMPDEST PUSH2 0x498 DUP6 PUSH1 0xA PUSH2 0xB5B JUMP JUMPDEST PUSH2 0x4A2 DUP8 DUP12 PUSH2 0x9FA JUMP JUMPDEST PUSH2 0x4AC SWAP2 SWAP1 PUSH2 0x9FA JUMP JUMPDEST PUSH2 0x4B6 SWAP2 SWAP1 PUSH2 0xA19 JUMP JUMPDEST PUSH2 0x4C0 SWAP2 SWAP1 PUSH2 0xA19 JUMP JUMPDEST SWAP10 SWAP9 POP POP POP POP POP POP POP POP POP JUMP JUMPDEST PUSH1 0x1 PUSH1 0x1 PUSH1 0xA0 SHL SUB DUP1 DUP4 AND PUSH1 0x0 SWAP1 DUP2 MSTORE PUSH1 0x3 PUSH1 0x20 SWAP1 DUP2 MSTORE PUSH1 0x40 DUP1 DUP4 KECCAK256 SWAP4 DUP6 AND DUP4 MSTORE SWAP3 DUP2 MSTORE DUP3 DUP3 KECCAK256 SLOAD PUSH1 0x4 SWAP1 SWAP2 MSTORE SWAP2 DUP2 KECCAK256 SLOAD SWAP1 SWAP2 SWAP1 DUP3 PUSH2 0x50B DUP6 PUSH2 0x6F4 JUMP JUMPDEST PUSH1 0x2 SLOAD PUSH1 0x40 MLOAD PUSH4 0xAE5B311 PUSH1 0xE3 SHL DUP2 MSTORE PUSH1 0x1 PUSH1 0x1 PUSH1 0xA0 SHL SUB DUP9 DUP2 AND PUSH1 0x4 DUP4 ADD MSTORE SWAP3 SWAP4 POP PUSH1 0x0 SWAP3 SWAP1 SWAP2 AND SWAP1 PUSH4 0x572D9888 SWAP1 PUSH1 0x24 ADD PUSH1 0x20 PUSH1 0x40 MLOAD DUP1 DUP4 SUB DUP2 DUP7 GAS STATICCALL ISZERO DUP1 ISZERO PUSH2 0x55B JUMPI RETURNDATASIZE PUSH1 0x0 DUP1 RETURNDATACOPY RETURNDATASIZE PUSH1 0x0 REVERT JUMPDEST POP POP POP POP PUSH1 0x40 MLOAD RETURNDATASIZE PUSH1 0x1F NOT PUSH1 0x1F DUP3 ADD AND DUP3 ADD DUP1 PUSH1 0x40 MSTORE POP DUP2 ADD SWAP1 PUSH2 0x57F SWAP2 SWAP1 PUSH2 0xA5E JUMP JUMPDEST SWAP1 POP PUSH2 0x593 PUSH8 0xDE0B6B3A7640000 DUP1 PUSH2 0x9FA JUMP JUMPDEST DUP2 DUP4 PUSH2 0x59F DUP7 DUP9 PUSH2 0x9FA JUMP JUMPDEST PUSH2 0x5A9 SWAP2 SWAP1 PUSH2 0x9FA JUMP JUMPDEST PUSH2 0x5B3 SWAP2 SWAP1 PUSH2 0x9FA JUMP JUMPDEST PUSH2 0x5BD SWAP2 SWAP1 PUSH2 0xA19 JUMP JUMPDEST SWAP5 POP POP POP POP POP JUMPDEST SWAP3 SWAP2 POP POP JUMP JUMPDEST PUSH1 0x0 DUP1 SLOAD PUSH1 0x40 MLOAD PUSH4 0xCCDBE8B1 PUSH1 0xE0 SHL DUP2 MSTORE PUSH1 0x1 PUSH1 0x1 PUSH1 0xA0 SHL SUB DUP6 DUP2 AND PUSH1 0x4 DUP4 ADD MSTORE DUP5 DUP2 AND PUSH1 0x24 DUP4 ADD MSTORE DUP4 SWAP3 AND SWAP1 PUSH4 0xCCDBE8B1 SWAP1 PUSH1 0x44 ADD PUSH1 0x20 PUSH1 0x40 MLOAD DUP1 DUP4 SUB DUP2 DUP7 GAS STATICCALL ISZERO DUP1 ISZERO PUSH2 0x61D JUMPI RETURNDATASIZE PUSH1 0x0 DUP1 RETURNDATACOPY RETURNDATASIZE PUSH1 0x0 REVERT JUMPDEST POP POP POP POP PUSH1 0x40 MLOAD RETURNDATASIZE PUSH1 0x1F NOT PUSH1 0x1F DUP3 ADD AND DUP3 ADD DUP1 PUSH1 0x40 MSTORE POP DUP2 ADD SWAP1 PUSH2 0x641 SWAP2 SWAP1 PUSH2 0xA5E JUMP JUMPDEST PUSH1 0x0 DUP1 SLOAD PUSH1 0x40 MLOAD PUSH4 0x27673FCD PUSH1 0xE1 SHL DUP2 MSTORE PUSH1 0x1 PUSH1 0x1 PUSH1 0xA0 SHL SUB DUP8 DUP2 AND PUSH1 0x4 DUP4 ADD MSTORE SWAP4 SWAP5 POP SWAP2 SWAP3 AND SWAP1 PUSH4 0x4ECE7F9A SWAP1 PUSH1 0x24 ADD PUSH1 0x20 PUSH1 0x40 MLOAD DUP1 DUP4 SUB DUP2 DUP7 GAS STATICCALL ISZERO DUP1 ISZERO PUSH2 0x68F JUMPI RETURNDATASIZE PUSH1 0x0 DUP1 RETURNDATACOPY RETURNDATASIZE PUSH1 0x0 REVERT JUMPDEST POP POP POP POP PUSH1 0x40 MLOAD RETURNDATASIZE PUSH1 0x1F NOT PUSH1 0x1F DUP3 ADD AND DUP3 ADD DUP1 PUSH1 0x40 MSTORE POP DUP2 ADD SWAP1 PUSH2 0x6B3 SWAP2 SWAP1 PUSH2 0xA5E JUMP JUMPDEST SWAP1 POP PUSH1 0x0 PUSH2 0x6C0 DUP6 PUSH2 0x6F4 JUMP JUMPDEST SWAP1 POP PUSH8 0xDE0B6B3A7640000 DUP2 PUSH2 0x6D6 DUP5 DUP7 PUSH2 0x9FA JUMP JUMPDEST PUSH2 0x6E0 SWAP2 SWAP1 PUSH2 0x9FA JUMP JUMPDEST PUSH2 0x6EA SWAP2 SWAP1 PUSH2 0xA19 JUMP JUMPDEST SWAP7 SWAP6 POP POP POP POP POP POP JUMP JUMPDEST PUSH1 0x2 SLOAD PUSH1 0x40 MLOAD PUSH3 0x26E8A3 PUSH1 0xE3 SHL DUP2 MSTORE PUSH1 0x1 PUSH1 0x1 PUSH1 0xA0 SHL SUB DUP4 DUP2 AND PUSH1 0x4 DUP4 ADD MSTORE PUSH1 0x0 SWAP3 DUP4 SWAP3 SWAP2 AND SWAP1 PUSH4 0x1374518 SWAP1 PUSH1 0x24 ADD PUSH1 0x20 PUSH1 0x40 MLOAD DUP1 DUP4 SUB DUP2 DUP7 GAS STATICCALL ISZERO DUP1 ISZERO PUSH2 0x741 JUMPI RETURNDATASIZE PUSH1 0x0 DUP1 RETURNDATACOPY RETURNDATASIZE PUSH1 0x0 REVERT JUMPDEST POP POP POP POP PUSH1 0x40 MLOAD RETURNDATASIZE PUSH1 0x1F NOT PUSH1 0x1F DUP3 ADD AND DUP3 ADD DUP1 PUSH1 0x40 MSTORE POP DUP2 ADD SWAP1 PUSH2 0x765 SWAP2 SWAP1 PUSH2 0xB67 JUMP JUMPDEST SWAP1 POP PUSH1 0x0 DUP2 PUSH1 0x1 PUSH1 0x1 PUSH1 0xA0 SHL SUB AND PUSH4 0xFEAF968C PUSH1 0x40 MLOAD DUP2 PUSH4 0xFFFFFFFF AND PUSH1 0xE0 SHL DUP2 MSTORE PUSH1 0x4 ADD PUSH1 0xA0 PUSH1 0x40 MLOAD DUP1 DUP4 SUB DUP2 DUP7 GAS STATICCALL ISZERO DUP1 ISZERO PUSH2 0x7A7 JUMPI RETURNDATASIZE PUSH1 0x0 DUP1 RETURNDATACOPY RETURNDATASIZE PUSH1 0x0 REVERT JUMPDEST POP POP POP POP PUSH1 0x40 MLOAD RETURNDATASIZE PUSH1 0x1F NOT PUSH1 0x1F DUP3 ADD AND DUP3 ADD DUP1 PUSH1 0x40 MSTORE POP DUP2 ADD SWAP1 PUSH2 0x7CB SWAP2 SWAP1 PUSH2 0xB9E JUMP JUMPDEST POP SWAP2 SWAP8 SWAP7 POP POP POP POP POP POP POP JUMP JUMPDEST PUSH1 0x1 PUSH1 0x1 PUSH1 0xA0 SHL SUB DUP2 AND DUP2 EQ PUSH2 0x7ED JUMPI PUSH1 0x0 DUP1 REVERT JUMPDEST POP JUMP JUMPDEST PUSH1 0x0 DUP1 PUSH1 0x40 DUP4 DUP6 SUB SLT ISZERO PUSH2 0x803 JUMPI PUSH1 0x0 DUP1 REVERT JUMPDEST DUP3 CALLDATALOAD PUSH2 0x80E DUP2 PUSH2 0x7D8 JUMP JUMPDEST SWAP2 POP PUSH1 0x20 DUP4 ADD CALLDATALOAD PUSH2 0x81E DUP2 PUSH2 0x7D8 JUMP JUMPDEST DUP1 SWAP2 POP POP SWAP3 POP SWAP3 SWAP1 POP JUMP JUMPDEST PUSH1 0x0 PUSH1 0x20 DUP3 DUP5 SUB SLT ISZERO PUSH2 0x83B JUMPI PUSH1 0x0 DUP1 REVERT JUMPDEST DUP2 CALLDATALOAD PUSH2 0x846 DUP2 PUSH2 0x7D8 JUMP JUMPDEST SWAP4 SWAP3 POP POP POP JUMP JUMPDEST PUSH1 0x0 DUP1 PUSH1 0x0 PUSH1 0x60 DUP5 DUP7 SUB SLT ISZERO PUSH2 0x862 JUMPI PUSH1 0x0 DUP1 REVERT JUMPDEST DUP4 CALLDATALOAD PUSH2 0x86D DUP2 PUSH2 0x7D8 JUMP JUMPDEST SWAP3 POP PUSH1 0x20 DUP5 ADD CALLDATALOAD PUSH2 0x87D DUP2 PUSH2 0x7D8 JUMP JUMPDEST SWAP3 SWAP6 SWAP3 SWAP5 POP POP POP PUSH1 0x40 SWAP2 SWAP1 SWAP2 ADD CALLDATALOAD SWAP1 JUMP JUMPDEST PUSH4 0x4E487B71 PUSH1 0xE0 SHL PUSH1 0x0 MSTORE PUSH1 0x41 PUSH1 0x4 MSTORE PUSH1 0x24 PUSH1 0x0 REVERT JUMPDEST DUP1 MLOAD PUSH2 0x8AF DUP2 PUSH2 0x7D8 JUMP JUMPDEST SWAP2 SWAP1 POP JUMP JUMPDEST PUSH1 0x0 PUSH1 0x20 DUP1 DUP4 DUP6 SUB SLT ISZERO PUSH2 0x8C7 JUMPI PUSH1 0x0 DUP1 REVERT JUMPDEST DUP3 MLOAD PUSH8 0xFFFFFFFFFFFFFFFF DUP1 DUP3 GT ISZERO PUSH2 0x8DF JUMPI PUSH1 0x0 DUP1 REVERT JUMPDEST DUP2 DUP6 ADD SWAP2 POP DUP6 PUSH1 0x1F DUP4 ADD SLT PUSH2 0x8F3 JUMPI PUSH1 0x0 DUP1 REVERT JUMPDEST DUP2 MLOAD DUP2 DUP2 GT ISZERO PUSH2 0x905 JUMPI PUSH2 0x905 PUSH2 0x88E JUMP JUMPDEST DUP1 PUSH1 0x5 SHL PUSH1 0x40 MLOAD PUSH1 0x1F NOT PUSH1 0x3F DUP4 ADD AND DUP2 ADD DUP2 DUP2 LT DUP6 DUP3 GT OR ISZERO PUSH2 0x92A JUMPI PUSH2 0x92A PUSH2 0x88E JUMP JUMPDEST PUSH1 0x40 MSTORE SWAP2 DUP3 MSTORE DUP5 DUP3 ADD SWAP3 POP DUP4 DUP2 ADD DUP6 ADD SWAP2 DUP9 DUP4 GT ISZERO PUSH2 0x948 JUMPI PUSH1 0x0 DUP1 REVERT JUMPDEST SWAP4 DUP6 ADD SWAP4 JUMPDEST DUP3 DUP6 LT ISZERO PUSH2 0x96D JUMPI PUSH2 0x95E DUP6 PUSH2 0x8A4 JUMP JUMPDEST DUP5 MSTORE SWAP4 DUP6 ADD SWAP4 SWAP3 DUP6 ADD SWAP3 PUSH2 0x94D JUMP JUMPDEST SWAP9 SWAP8 POP POP POP POP POP POP POP POP JUMP JUMPDEST PUSH4 0x4E487B71 PUSH1 0xE0 SHL PUSH1 0x0 MSTORE PUSH1 0x32 PUSH1 0x4 MSTORE PUSH1 0x24 PUSH1 0x0 REVERT JUMPDEST PUSH1 0x0 PUSH1 0x20 DUP3 DUP5 SUB SLT ISZERO PUSH2 0x9A1 JUMPI PUSH1 0x0 DUP1 REVERT JUMPDEST DUP2 MLOAD DUP1 ISZERO ISZERO DUP2 EQ PUSH2 0x846 JUMPI PUSH1 0x0 DUP1 REVERT JUMPDEST PUSH4 0x4E487B71 PUSH1 0xE0 SHL PUSH1 0x0 MSTORE PUSH1 0x11 PUSH1 0x4 MSTORE PUSH1 0x24 PUSH1 0x0 REVERT JUMPDEST PUSH1 0x0 DUP3 NOT DUP3 GT ISZERO PUSH2 0x9DA JUMPI PUSH2 0x9DA PUSH2 0x9B1 JUMP JUMPDEST POP ADD SWAP1 JUMP JUMPDEST PUSH1 0x0 PUSH1 0x0 NOT DUP3 EQ ISZERO PUSH2 0x9F3 JUMPI PUSH2 0x9F3 PUSH2 0x9B1 JUMP JUMPDEST POP PUSH1 0x1 ADD SWAP1 JUMP JUMPDEST PUSH1 0x0 DUP2 PUSH1 0x0 NOT DIV DUP4 GT DUP3 ISZERO ISZERO AND ISZERO PUSH2 0xA14 JUMPI PUSH2 0xA14 PUSH2 0x9B1 JUMP JUMPDEST POP MUL SWAP1 JUMP JUMPDEST PUSH1 0x0 DUP3 PUSH2 0xA36 JUMPI PUSH4 0x4E487B71 PUSH1 0xE0 SHL PUSH1 0x0 MSTORE PUSH1 0x12 PUSH1 0x4 MSTORE PUSH1 0x24 PUSH1 0x0 REVERT JUMPDEST POP DIV SWAP1 JUMP JUMPDEST PUSH1 0x0 PUSH1 0x20 DUP3 DUP5 SUB SLT ISZERO PUSH2 0xA4D JUMPI PUSH1 0x0 DUP1 REVERT JUMPDEST DUP2 MLOAD PUSH1 0xFF DUP2 AND DUP2 EQ PUSH2 0x846 JUMPI PUSH1 0x0 DUP1 REVERT JUMPDEST PUSH1 0x0 PUSH1 0x20 DUP3 DUP5 SUB SLT ISZERO PUSH2 0xA70 JUMPI PUSH1 0x0 DUP1 REVERT JUMPDEST POP MLOAD SWAP2 SWAP1 POP JUMP JUMPDEST PUSH1 0x1 DUP2 DUP2 JUMPDEST DUP1 DUP6 GT ISZERO PUSH2 0xAB2 JUMPI DUP2 PUSH1 0x0 NOT DIV DUP3 GT ISZERO PUSH2 0xA98 JUMPI PUSH2 0xA98 PUSH2 0x9B1 JUMP JUMPDEST DUP1 DUP6 AND ISZERO PUSH2 0xAA5 JUMPI SWAP2 DUP2 MUL SWAP2 JUMPDEST SWAP4 DUP5 SHR SWAP4 SWAP1 DUP1 MUL SWAP1 PUSH2 0xA7C JUMP JUMPDEST POP SWAP3 POP SWAP3 SWAP1 POP JUMP JUMPDEST PUSH1 0x0 DUP3 PUSH2 0xAC9 JUMPI POP PUSH1 0x1 PUSH2 0x5C4 JUMP JUMPDEST DUP2 PUSH2 0xAD6 JUMPI POP PUSH1 0x0 PUSH2 0x5C4 JUMP JUMPDEST DUP2 PUSH1 0x1 DUP2 EQ PUSH2 0xAEC JUMPI PUSH1 0x2 DUP2 EQ PUSH2 0xAF6 JUMPI PUSH2 0xB12 JUMP JUMPDEST PUSH1 0x1 SWAP2 POP POP PUSH2 0x5C4 JUMP JUMPDEST PUSH1 0xFF DUP5 GT ISZERO PUSH2 0xB07 JUMPI PUSH2 0xB07 PUSH2 0x9B1 JUMP JUMPDEST POP POP PUSH1 0x1 DUP3 SHL PUSH2 0x5C4 JUMP JUMPDEST POP PUSH1 0x20 DUP4 LT PUSH2 0x133 DUP4 LT AND PUSH1 0x4E DUP5 LT PUSH1 0xB DUP5 LT AND OR ISZERO PUSH2 0xB35 JUMPI POP DUP2 DUP2 EXP PUSH2 0x5C4 JUMP JUMPDEST PUSH2 0xB3F DUP4 DUP4 PUSH2 0xA77 JUMP JUMPDEST DUP1 PUSH1 0x0 NOT DIV DUP3 GT ISZERO PUSH2 0xB53 JUMPI PUSH2 0xB53 PUSH2 0x9B1 JUMP JUMPDEST MUL SWAP4 SWAP3 POP POP POP JUMP JUMPDEST PUSH1 0x0 PUSH2 0x846 DUP4 DUP4 PUSH2 0xABA JUMP JUMPDEST PUSH1 0x0 PUSH1 0x20 DUP3 DUP5 SUB SLT ISZERO PUSH2 0xB79 JUMPI PUSH1 0x0 DUP1 REVERT JUMPDEST DUP2 MLOAD PUSH2 0x846 DUP2 PUSH2 0x7D8 JUMP JUMPDEST DUP1 MLOAD PUSH10 0xFFFFFFFFFFFFFFFFFFFF DUP2 AND DUP2 EQ PUSH2 0x8AF JUMPI PUSH1 0x0 DUP1 REVERT JUMPDEST PUSH1 0x0 DUP1 PUSH1 0x0 DUP1 PUSH1 0x0 PUSH1 0xA0 DUP7 DUP9 SUB SLT ISZERO PUSH2 0xBB6 JUMPI PUSH1 0x0 DUP1 REVERT JUMPDEST PUSH2 0xBBF DUP7 PUSH2 0xB84 JUMP JUMPDEST SWAP5 POP PUSH1 0x20 DUP7 ADD MLOAD SWAP4 POP PUSH1 0x40 DUP7 ADD MLOAD SWAP3 POP PUSH1 0x60 DUP7 ADD MLOAD SWAP2 POP PUSH2 0xBE2 PUSH1 0x80 DUP8 ADD PUSH2 0xB84 JUMP JUMPDEST SWAP1 POP SWAP3 SWAP6 POP SWAP3 SWAP6 SWAP1 SWAP4 POP JUMP INVALID LOG2 PUSH5 0x6970667358 0x22 SLT KECCAK256 0xD0 0x49 0xD7 PUSH19 0x1E063F6FF9E308E16DB6C49F3ABAA600C157B7 0x2A 0x2E MULMOD PUSH6 0x92785CA4E464 PUSH20 0x6F6C634300080C00330000000000000000000000 "},"methodIdentifiers":{"WADNew()":"27f94dd8","calculateCollateralAmountToSeize(address,address,uint256)":"b49bbd60","calculateHealthFactor(address)":"9ce625f7","cumulatedLiquidityIndex(address)":"bcfa3b65","scaledUserBalance(address,address)":"51702ad1","yieldFiAdminInterface()":"3b2a5da8","yieldFiCollateralInterface()":"9b925dfd","yieldFiFlashLoanInterface()":"4cff1e15"}}}}}