{
  "_format": "hh-sol-artifact-1",
  "contractName": "YieldFiCollateral",
  "sourceName": "contracts/YieldFiCollateral.sol",
  "abi": [
    {
      "inputs": [
        {
          "internalType": "contract YieldFiAdmin",
          "name": "_admin",
          "type": "address"
        }
      ],
      "stateMutability": "nonpayable",
      "type": "constructor"
    },
    {
      "anonymous": false,
      "inputs": [
        {
          "indexed": true,
          "internalType": "address",
          "name": "user",
          "type": "address"
        },
        {
          "indexed": true,
          "internalType": "address",
          "name": "to",
          "type": "address"
        },
        {
          "indexed": true,
          "internalType": "address",
          "name": "reserve",
          "type": "address"
        },
        {
          "indexed": false,
          "internalType": "uint256",
          "name": "amount",
          "type": "uint256"
        }
      ],
      "name": "DelegateBorrowingPower",
      "type": "event"
    },
    {
      "anonymous": false,
      "inputs": [
        {
          "indexed": true,
          "internalType": "address",
          "name": "borrower",
          "type": "address"
        },
        {
          "indexed": true,
          "internalType": "address",
          "name": "reserve",
          "type": "address"
        },
        {
          "indexed": false,
          "internalType": "uint256",
          "name": "amount",
          "type": "uint256"
        },
        {
          "indexed": true,
          "internalType": "address",
          "name": "collateral",
          "type": "address"
        },
        {
          "indexed": false,
          "internalType": "uint256",
          "name": "collateralAmount",
          "type": "uint256"
        }
      ],
      "name": "Liquidate",
      "type": "event"
    },
    {
      "anonymous": false,
      "inputs": [
        {
          "indexed": true,
          "internalType": "address",
          "name": "user",
          "type": "address"
        },
        {
          "indexed": true,
          "internalType": "address",
          "name": "reserve",
          "type": "address"
        },
        {
          "indexed": false,
          "internalType": "uint256",
          "name": "amount",
          "type": "uint256"
        },
        {
          "indexed": true,
          "internalType": "address",
          "name": "onBehalfOf",
          "type": "address"
        }
      ],
      "name": "RepayWithCollateral",
      "type": "event"
    },
    {
      "anonymous": false,
      "inputs": [
        {
          "indexed": true,
          "internalType": "address",
          "name": "user",
          "type": "address"
        },
        {
          "indexed": true,
          "internalType": "address",
          "name": "reserve",
          "type": "address"
        },
        {
          "indexed": false,
          "internalType": "bool",
          "name": "useAsCollateral",
          "type": "bool"
        }
      ],
      "name": "UseAsCollateral",
      "type": "event"
    },
    {
      "inputs": [
        {
          "internalType": "address",
          "name": "",
          "type": "address"
        },
        {
          "internalType": "address",
          "name": "",
          "type": "address"
        }
      ],
      "name": "borrowBalance",
      "outputs": [
        {
          "internalType": "uint256",
          "name": "",
          "type": "uint256"
        }
      ],
      "stateMutability": "view",
      "type": "function"
    },
    {
      "inputs": [
        {
          "internalType": "address",
          "name": "",
          "type": "address"
        }
      ],
      "name": "cumulatedVariableBorrowIndex",
      "outputs": [
        {
          "internalType": "uint256",
          "name": "",
          "type": "uint256"
        }
      ],
      "stateMutability": "view",
      "type": "function"
    },
    {
      "inputs": [
        {
          "internalType": "address",
          "name": "_to",
          "type": "address"
        },
        {
          "internalType": "address",
          "name": "_reserve",
          "type": "address"
        },
        {
          "internalType": "uint256",
          "name": "_amount",
          "type": "uint256"
        }
      ],
      "name": "delegateBorrowingPower",
      "outputs": [],
      "stateMutability": "nonpayable",
      "type": "function"
    },
    {
      "inputs": [
        {
          "internalType": "address",
          "name": "",
          "type": "address"
        },
        {
          "internalType": "address",
          "name": "",
          "type": "address"
        }
      ],
      "name": "isCollateralEnabled",
      "outputs": [
        {
          "internalType": "bool",
          "name": "",
          "type": "bool"
        }
      ],
      "stateMutability": "view",
      "type": "function"
    },
    {
      "inputs": [
        {
          "internalType": "address",
          "name": "",
          "type": "address"
        },
        {
          "internalType": "address",
          "name": "",
          "type": "address"
        }
      ],
      "name": "principalBorrowBalance",
      "outputs": [
        {
          "internalType": "uint256",
          "name": "",
          "type": "uint256"
        }
      ],
      "stateMutability": "view",
      "type": "function"
    },
    {
      "inputs": [
        {
          "internalType": "address",
          "name": "_reserve",
          "type": "address"
        },
        {
          "internalType": "uint256",
          "name": "_amount",
          "type": "uint256"
        },
        {
          "internalType": "address",
          "name": "_onBehalfOf",
          "type": "address"
        }
      ],
      "name": "repayWithCollateral",
      "outputs": [],
      "stateMutability": "nonpayable",
      "type": "function"
    },
    {
      "inputs": [
        {
          "internalType": "address",
          "name": "",
          "type": "address"
        }
      ],
      "name": "totalBorrow",
      "outputs": [
        {
          "internalType": "uint256",
          "name": "",
          "type": "uint256"
        }
      ],
      "stateMutability": "view",
      "type": "function"
    },
    {
      "inputs": [
        {
          "internalType": "address",
          "name": "_reserve",
          "type": "address"
        },
        {
          "internalType": "bool",
          "name": "_useAsCollateral",
          "type": "bool"
        }
      ],
      "name": "useAsCollateral",
      "outputs": [],
      "stateMutability": "nonpayable",
      "type": "function"
    },
    {
      "inputs": [
        {
          "internalType": "address",
          "name": "",
          "type": "address"
        },
        {
          "internalType": "address",
          "name": "",
          "type": "address"
        }
      ],
      "name": "userBalance",
      "outputs": [
        {
          "internalType": "uint256",
          "name": "",
          "type": "uint256"
        }
      ],
      "stateMutability": "view",
      "type": "function"
    },
    {
      "inputs": [
        {
          "internalType": "address",
          "name": "",
          "type": "address"
        }
      ],
      "name": "variableDebtTokenContracts",
      "outputs": [
        {
          "internalType": "address",
          "name": "",
          "type": "address"
        }
      ],
      "stateMutability": "view",
      "type": "function"
    },
    {
      "inputs": [],
      "name": "yieldFiAdmin",
      "outputs": [
        {
          "internalType": "contract YieldFiAdmin",
          "name": "",
          "type": "address"
        }
      ],
      "stateMutability": "view",
      "type": "function"
    },
    {
      "inputs": [],
      "name": "yieldFiCore",
      "outputs": [
        {
          "internalType": "address",
          "name": "",
          "type": "address"
        }
      ],
      "stateMutability": "view",
      "type": "function"
    }
  ],
  "bytecode": "0x608060405234801561001057600080fd5b50604051610bfd380380610bfd83398101604081905261002f91610054565b600080546001600160a01b0319166001600160a01b0392909216919091179055610084565b60006020828403121561006657600080fd5b81516001600160a01b038116811461007d57600080fd5b9392505050565b610b6a806100936000396000f3fe608060405234801561001057600080fd5b50600436106100b45760003560e01c80639e716d58116100715780639e716d58146101ab578063bef467e1146101e9578063c72987cc146101fc578063ccdbe8b11461020f578063dd6d19541461023a578063e842cc281461025a57600080fd5b80634ece7f9a146100b957806362a4b0a9146100ec57806377d0276c1461011757806385e7e87b1461014257806391e67ff8146101835780639345195414610196575b600080fd5b6100d96100c7366004610927565b60086020526000908152604090205481565b6040519081526020015b60405180910390f35b6100d96100fa366004610949565b600360209081526000928352604080842090915290825290205481565b6100d9610125366004610949565b600560209081526000928352604080842090915290825290205481565b61016b610150366004610927565b6006602052600090815260409020546001600160a01b031681565b6040516001600160a01b0390911681526020016100e3565b60015461016b906001600160a01b031681565b6101a96101a436600461097c565b61026d565b005b6101d96101b9366004610949565b600260209081526000928352604080842090915290825290205460ff1681565b60405190151581526020016100e3565b60005461016b906001600160a01b031681565b6101a961020a3660046109b8565b6105d0565b6100d961021d366004610949565b600460209081526000928352604080842090915290825290205481565b6100d9610248366004610927565b60076020526000908152604090205481565b6101a9610268366004610a05565b610751565b600082116102c25760405162461bcd60e51b815260206004820181905260248201527f416d6f756e74206d7573742062652067726561746572207468616e207a65726f60448201526064015b60405180910390fd5b6001600160a01b038082166000908152600460209081526040808320938716835292905220548211156103375760405162461bcd60e51b815260206004820152601b60248201527f496e73756666696369656e7420626f72726f772062616c616e6365000000000060448201526064016102b9565b6001600160a01b0380821660009081526002602090815260408083209387168352929052205460ff166103a55760405162461bcd60e51b815260206004820152601660248201527510dbdb1b185d195c985b081b9bdd08195b98589b195960521b60448201526064016102b9565b6001600160a01b0383811660009081526006602052604090819020549051632142170760e11b8152336004820152306024820152604481018590529116906342842e0e906064016020604051808303816000875af115801561040b573d6000803e3d6000fd5b505050506040513d601f19601f8201168201806040525081019061042f9190610a3c565b506001600160a01b03831660009081526008602052604081205461045490849061082d565b6001600160a01b038084166000908152600460209081526040808320938916835292905290812080549293508392909190610490908490610a6f565b90915550506001600160a01b038083166000908152600560209081526040808320938816835292905290812080548392906104cc908490610a6f565b90915550506001600160a01b038416600090815260076020526040812080548392906104f9908490610a6f565b90915550506001600160a01b0384811660009081526006602052604090819020549051632770a7eb60e21b8152848316600482015260248101869052911690639dc29fac90604401600060405180830381600087803b15801561055b57600080fd5b505af115801561056f573d6000803e3d6000fd5b50505050816001600160a01b0316846001600160a01b0316336001600160a01b03167fd852938a229fd159abe80f48925d4fd2e5215e95baa1b8dc44e54ed0ca52f4f3866040516105c291815260200190565b60405180910390a450505050565b600081116106205760405162461bcd60e51b815260206004820181905260248201527f416d6f756e74206d7573742062652067726561746572207468616e207a65726f60448201526064016102b9565b3360009081526004602090815260408083206001600160a01b03861684529091529020548111156106935760405162461bcd60e51b815260206004820152601b60248201527f496e73756666696369656e7420626f72726f772062616c616e6365000000000060448201526064016102b9565b6001600160a01b038084166000908152600460209081526040808320938616835292905290812080548392906106ca908490610a86565b90915550503360009081526004602090815260408083206001600160a01b038616845290915281208054839290610702908490610a6f565b90915550506040518181526001600160a01b03808416919085169033907fffde7b192559a173d2705606713f80f5e1e4ab80e37efae9d3134bec05d1d0f99060200160405180910390a4505050565b3360009081526003602090815260408083206001600160a01b03861684529091529020546107c15760405162461bcd60e51b815260206004820152601f60248201527f4e6f2062616c616e636520746f2075736520617320636f6c6c61746572616c0060448201526064016102b9565b3360008181526002602090815260408083206001600160a01b03871680855290835292819020805460ff191686151590811790915590519081529192917fa142a156353950634c7dae3a75c4e31515685517647c36592d9d9261fbbf2d0f910160405180910390a35050565b604080518082019091526002815261035360f41b6020820152600090826108675760405162461bcd60e51b81526004016102b99190610a9e565b506000610875600284610af3565b90506b033b2e3c9fd0803ce800000061089082600019610a6f565b61089a9190610af3565b84111560405180604001604052806002815260200161068760f31b815250906108d65760405162461bcd60e51b81526004016102b99190610a9e565b5082816108ef6b033b2e3c9fd0803ce800000087610b15565b6108f99190610a86565b6109039190610af3565b949350505050565b80356001600160a01b038116811461092257600080fd5b919050565b60006020828403121561093957600080fd5b6109428261090b565b9392505050565b6000806040838503121561095c57600080fd5b6109658361090b565b91506109736020840161090b565b90509250929050565b60008060006060848603121561099157600080fd5b61099a8461090b565b9250602084013591506109af6040850161090b565b90509250925092565b6000806000606084860312156109cd57600080fd5b6109d68461090b565b92506109e46020850161090b565b9150604084013590509250925092565b8015158114610a0257600080fd5b50565b60008060408385031215610a1857600080fd5b610a218361090b565b91506020830135610a31816109f4565b809150509250929050565b600060208284031215610a4e57600080fd5b8151610942816109f4565b634e487b7160e01b600052601160045260246000fd5b600082821015610a8157610a81610a59565b500390565b60008219821115610a9957610a99610a59565b500190565b600060208083528351808285015260005b81811015610acb57858101830151858201604001528201610aaf565b81811115610add576000604083870101525b50601f01601f1916929092016040019392505050565b600082610b1057634e487b7160e01b600052601260045260246000fd5b500490565b6000816000190483118215151615610b2f57610b2f610a59565b50029056fea26469706673582212207ef6472670617b098fe469a40cd17d2aa627f05e83f93838b4fd43e6fd253abf64736f6c634300080c0033",
  "linkReferences": {},
  "deployedLinkReferences": {}
}