{
  "_format": "hh-sol-artifact-1",
  "contractName": "YieldFiCalculations",
  "sourceName": "contracts/YieldFiCalculations.sol",
  "abi": [
    {
      "inputs": [
        {
          "internalType": "contract YieldFiCollateral",
          "name": "_collateral",
          "type": "address"
        },
        {
          "internalType": "contract YieldFiFlashLoan",
          "name": "_flashLoan",
          "type": "address"
        },
        {
          "internalType": "contract YieldFiAdmin",
          "name": "_admin",
          "type": "address"
        }
      ],
      "stateMutability": "nonpayable",
      "type": "constructor"
    },
    {
      "inputs": [],
      "name": "WADNew",
      "outputs": [
        {
          "internalType": "uint256",
          "name": "",
          "type": "uint256"
        }
      ],
      "stateMutability": "view",
      "type": "function"
    },
    {
      "inputs": [
        {
          "internalType": "address",
          "name": "_reserve",
          "type": "address"
        },
        {
          "internalType": "address",
          "name": "_collateral",
          "type": "address"
        },
        {
          "internalType": "uint256",
          "name": "_debtToCover",
          "type": "uint256"
        }
      ],
      "name": "calculateCollateralAmountToSeize",
      "outputs": [
        {
          "internalType": "uint256",
          "name": "",
          "type": "uint256"
        }
      ],
      "stateMutability": "view",
      "type": "function"
    },
    {
      "inputs": [
        {
          "internalType": "address",
          "name": "_user",
          "type": "address"
        }
      ],
      "name": "calculateHealthFactor",
      "outputs": [
        {
          "internalType": "uint256",
          "name": "",
          "type": "uint256"
        }
      ],
      "stateMutability": "view",
      "type": "function"
    },
    {
      "inputs": [
        {
          "internalType": "address",
          "name": "",
          "type": "address"
        }
      ],
      "name": "cumulatedLiquidityIndex",
      "outputs": [
        {
          "internalType": "uint256",
          "name": "",
          "type": "uint256"
        }
      ],
      "stateMutability": "view",
      "type": "function"
    },
    {
      "inputs": [
        {
          "internalType": "address",
          "name": "",
          "type": "address"
        },
        {
          "internalType": "address",
          "name": "",
          "type": "address"
        }
      ],
      "name": "scaledUserBalance",
      "outputs": [
        {
          "internalType": "uint256",
          "name": "",
          "type": "uint256"
        }
      ],
      "stateMutability": "view",
      "type": "function"
    },
    {
      "inputs": [],
      "name": "yieldFiAdminInterface",
      "outputs": [
        {
          "internalType": "contract YieldFiAdmin",
          "name": "",
          "type": "address"
        }
      ],
      "stateMutability": "view",
      "type": "function"
    },
    {
      "inputs": [],
      "name": "yieldFiCollateralInterface",
      "outputs": [
        {
          "internalType": "contract YieldFiCollateral",
          "name": "",
          "type": "address"
        }
      ],
      "stateMutability": "view",
      "type": "function"
    },
    {
      "inputs": [],
      "name": "yieldFiFlashLoanInterface",
      "outputs": [
        {
          "internalType": "contract YieldFiFlashLoan",
          "name": "",
          "type": "address"
        }
      ],
      "stateMutability": "view",
      "type": "function"
    }
  ],
  "bytecode": "0x608060405234801561001057600080fd5b50604051610d09380380610d0983398101604081905261002f91610089565b600080546001600160a01b039485166001600160a01b0319918216179091556001805493851693821693909317909255600280549190931691161790556100d6565b6001600160a01b038116811461008657600080fd5b50565b60008060006060848603121561009e57600080fd5b83516100a981610071565b60208501519093506100ba81610071565b60408501519092506100cb81610071565b809150509250925092565b610c24806100e56000396000f3fe608060405234801561001057600080fd5b50600436106100885760003560e01c80639b925dfd1161005b5780639b925dfd146101185780639ce625f71461012b578063b49bbd601461013e578063bcfa3b651461015157600080fd5b806327f94dd81461008d5780633b2a5da8146100af5780634cff1e15146100da57806351702ad1146100ed575b600080fd5b61009c670de0b6b3a764000081565b6040519081526020015b60405180910390f35b6002546100c2906001600160a01b031681565b6040516001600160a01b0390911681526020016100a6565b6001546100c2906001600160a01b031681565b61009c6100fb3660046107f0565b600360209081526000928352604080842090915290825290205481565b6000546100c2906001600160a01b031681565b61009c610139366004610829565b610171565b61009c61014c36600461084d565b610310565b61009c61015f366004610829565b60046020526000908152604090205481565b60015460408051636aa701bf60e01b815290516000928392839283926001600160a01b031691636aa701bf91600480830192869291908290030181865afa1580156101c0573d6000803e3d6000fd5b505050506040513d6000823e601f3d908101601f191682016040526101e891908101906108b4565b905060005b81518110156102d857600082828151811061020a5761020a610979565b60209081029190910101516000546040516313ce2dab60e31b81526001600160a01b038a811660048301528084166024830152929350911690639e716d5890604401602060405180830381865afa158015610269573d6000803e3d6000fd5b505050506040513d601f19601f8201168201806040525081019061028d919061098f565b156102ae57600061029e88836104cd565b90506102aa81876109c7565b9550505b6102b887826105ca565b6102c290856109c7565b93505080806102d0906109df565b9150506101ed565b50816102ea5750600019949350505050565b816102fd670de0b6b3a7640000856109fa565b6103079190610a19565b95945050505050565b60008061031c846106f4565b90506000610329866106f4565b90506000856001600160a01b031663313ce5676040518163ffffffff1660e01b8152600401602060405180830381865afa15801561036b573d6000803e3d6000fd5b505050506040513d601f19601f8201168201806040525081019061038f9190610a3b565b60ff1690506000876001600160a01b031663313ce5676040518163ffffffff1660e01b8152600401602060405180830381865afa1580156103d4573d6000803e3d6000fd5b505050506040513d601f19601f820116820180604052508101906103f89190610a3b565b600254604051630f064e8760e31b81526001600160a01b038a8116600483015260ff939093169350600092670de0b6b3a7640000921690637832743890602401602060405180830381865afa158015610455573d6000803e3d6000fd5b505050506040513d601f19601f820116820180604052508101906104799190610a5e565b61048384886109fa565b61048d91906109fa565b61049885600a610b5b565b6104a2878b6109fa565b6104ac91906109fa565b6104b69190610a19565b6104c09190610a19565b9998505050505050505050565b6001600160a01b0380831660009081526003602090815260408083209385168352928152828220546004909152918120549091908261050b856106f4565b600254604051630ae5b31160e31b81526001600160a01b0388811660048301529293506000929091169063572d988890602401602060405180830381865afa15801561055b573d6000803e3d6000fd5b505050506040513d601f19601f8201168201806040525081019061057f9190610a5e565b9050610593670de0b6b3a7640000806109fa565b818361059f86886109fa565b6105a991906109fa565b6105b391906109fa565b6105bd9190610a19565b9450505050505b92915050565b6000805460405163ccdbe8b160e01b81526001600160a01b03858116600483015284811660248301528392169063ccdbe8b190604401602060405180830381865afa15801561061d573d6000803e3d6000fd5b505050506040513d601f19601f820116820180604052508101906106419190610a5e565b600080546040516327673fcd60e11b81526001600160a01b03878116600483015293945091921690634ece7f9a90602401602060405180830381865afa15801561068f573d6000803e3d6000fd5b505050506040513d601f19601f820116820180604052508101906106b39190610a5e565b905060006106c0856106f4565b9050670de0b6b3a7640000816106d684866109fa565b6106e091906109fa565b6106ea9190610a19565b9695505050505050565b6002546040516226e8a360e31b81526001600160a01b0383811660048301526000928392911690630137451890602401602060405180830381865afa158015610741573d6000803e3d6000fd5b505050506040513d601f19601f820116820180604052508101906107659190610b67565b90506000816001600160a01b031663feaf968c6040518163ffffffff1660e01b815260040160a060405180830381865afa1580156107a7573d6000803e3d6000fd5b505050506040513d601f19601f820116820180604052508101906107cb9190610b9e565b5091979650505050505050565b6001600160a01b03811681146107ed57600080fd5b50565b6000806040838503121561080357600080fd5b823561080e816107d8565b9150602083013561081e816107d8565b809150509250929050565b60006020828403121561083b57600080fd5b8135610846816107d8565b9392505050565b60008060006060848603121561086257600080fd5b833561086d816107d8565b9250602084013561087d816107d8565b929592945050506040919091013590565b634e487b7160e01b600052604160045260246000fd5b80516108af816107d8565b919050565b600060208083850312156108c757600080fd5b825167ffffffffffffffff808211156108df57600080fd5b818501915085601f8301126108f357600080fd5b8151818111156109055761090561088e565b8060051b604051601f19603f8301168101818110858211171561092a5761092a61088e565b60405291825284820192508381018501918883111561094857600080fd5b938501935b8285101561096d5761095e856108a4565b8452938501939285019261094d565b98975050505050505050565b634e487b7160e01b600052603260045260246000fd5b6000602082840312156109a157600080fd5b8151801515811461084657600080fd5b634e487b7160e01b600052601160045260246000fd5b600082198211156109da576109da6109b1565b500190565b60006000198214156109f3576109f36109b1565b5060010190565b6000816000190483118215151615610a1457610a146109b1565b500290565b600082610a3657634e487b7160e01b600052601260045260246000fd5b500490565b600060208284031215610a4d57600080fd5b815160ff8116811461084657600080fd5b600060208284031215610a7057600080fd5b5051919050565b600181815b80851115610ab2578160001904821115610a9857610a986109b1565b80851615610aa557918102915b93841c9390800290610a7c565b509250929050565b600082610ac9575060016105c4565b81610ad6575060006105c4565b8160018114610aec5760028114610af657610b12565b60019150506105c4565b60ff841115610b0757610b076109b1565b50506001821b6105c4565b5060208310610133831016604e8410600b8410161715610b35575081810a6105c4565b610b3f8383610a77565b8060001904821115610b5357610b536109b1565b029392505050565b60006108468383610aba565b600060208284031215610b7957600080fd5b8151610846816107d8565b805169ffffffffffffffffffff811681146108af57600080fd5b600080600080600060a08688031215610bb657600080fd5b610bbf86610b84565b9450602086015193506040860151925060608601519150610be260808701610b84565b9050929550929590935056fea2646970667358221220d049d7721e063f6ff9e308e16db6c49f3abaa600c157b72a2e096592785ca4e464736f6c634300080c0033",
  "linkReferences": {},
  "deployedLinkReferences": {}
}