{
  "_format": "hh-sol-artifact-1",
  "contractName": "YieldFiFlashLoan",
  "sourceName": "contracts/YieldFiFlashLoan.sol",
  "abi": [
    {
      "inputs": [
        {
          "internalType": "address",
          "name": "_lendingPoolAddress",
          "type": "address"
        }
      ],
      "stateMutability": "nonpayable",
      "type": "constructor"
    },
    {
      "anonymous": false,
      "inputs": [
        {
          "indexed": true,
          "internalType": "address",
          "name": "user",
          "type": "address"
        },
        {
          "indexed": true,
          "internalType": "address",
          "name": "reserve",
          "type": "address"
        },
        {
          "indexed": false,
          "internalType": "uint256",
          "name": "amount",
          "type": "uint256"
        }
      ],
      "name": "FlashLoan",
      "type": "event"
    },
    {
      "inputs": [
        {
          "internalType": "address[]",
          "name": "assets",
          "type": "address[]"
        },
        {
          "internalType": "uint256[]",
          "name": "amounts",
          "type": "uint256[]"
        },
        {
          "internalType": "uint256[]",
          "name": "premiums",
          "type": "uint256[]"
        },
        {
          "internalType": "address",
          "name": "initiator",
          "type": "address"
        },
        {
          "internalType": "bytes",
          "name": "",
          "type": "bytes"
        }
      ],
      "name": "executeOperation",
      "outputs": [
        {
          "internalType": "bool",
          "name": "",
          "type": "bool"
        }
      ],
      "stateMutability": "nonpayable",
      "type": "function"
    },
    {
      "inputs": [
        {
          "internalType": "address",
          "name": "_receiver",
          "type": "address"
        },
        {
          "internalType": "address",
          "name": "_reserve",
          "type": "address"
        },
        {
          "internalType": "uint256",
          "name": "_amount",
          "type": "uint256"
        }
      ],
      "name": "flashLoan",
      "outputs": [],
      "stateMutability": "nonpayable",
      "type": "function"
    },
    {
      "inputs": [],
      "name": "getAllReserves",
      "outputs": [
        {
          "internalType": "address[]",
          "name": "",
          "type": "address[]"
        }
      ],
      "stateMutability": "view",
      "type": "function"
    },
    {
      "inputs": [],
      "name": "lendingPoolAddress",
      "outputs": [
        {
          "internalType": "address",
          "name": "",
          "type": "address"
        }
      ],
      "stateMutability": "view",
      "type": "function"
    }
  ],
  "bytecode": "0x608060405234801561001057600080fd5b50604051610c1e380380610c1e83398101604081905261002f91610054565b600080546001600160a01b0319166001600160a01b0392909216919091179055610084565b60006020828403121561006657600080fd5b81516001600160a01b038116811461007d57600080fd5b9392505050565b610b8b806100936000396000f3fe608060405234801561001057600080fd5b506004361061004c5760003560e01c80636aa701bf14610051578063920f5c841461006f5780639d9638a114610092578063d3ae26b3146100a7575b600080fd5b6100596100d2565b604051610066919061070d565b60405180910390f35b61008261007d36600461078b565b610148565b6040519015158152602001610066565b6100a56100a0366004610890565b6102d0565b005b6000546100ba906001600160a01b031681565b6040516001600160a01b039091168152602001610066565b60008054604080516334651b6f60e21b815290516060936001600160a01b039093169263d1946dbc92600480820193918290030181865afa15801561011b573d6000803e3d6000fd5b505050506040513d6000823e601f3d908101601f1916820160405261014391908101906108f7565b905090565b6000805b898110156102bf576000878783818110610168576101686109bc565b905060200201358a8a84818110610181576101816109bc565b9050602002013561019291906109e8565b9050808c8c848181106101a7576101a76109bc565b90506020020160208101906101bc9190610a00565b6040516370a0823160e01b81523060048201526001600160a01b0391909116906370a0823190602401602060405180830381865afa158015610202573d6000803e3d6000fd5b505050506040513d601f19601f820116820180604052508101906102269190610a1d565b10156102705760405162461bcd60e51b8152602060048201526014602482015273119b185cda1b1bd85b881b9bdd081c995c185a5960621b60448201526064015b60405180910390fd5b6102ac86828e8e86818110610287576102876109bc565b905060200201602081019061029c9190610a00565b6001600160a01b031691906104a9565b50806102b781610a36565b91505061014c565b5060019a9950505050505050505050565b600081116103205760405162461bcd60e51b815260206004820181905260248201527f416d6f756e74206d7573742062652067726561746572207468616e207a65726f6044820152606401610267565b604080516001808252818301909252600091602080830190803683370190505090508281600081518110610356576103566109bc565b6001600160a01b03929092166020928302919091019091015260408051600180825281830190925260009181602001602082028036833701905050905082816000815181106103a7576103a76109bc565b60209081029190910101526040805160018082528183019092526000918160200160208202803683370190505090506000816000815181106103eb576103eb6109bc565b60209081029190910101526000805460405163ab9c4b5d60e01b81526001600160a01b039091169163ab9c4b5d9161042f918a918891889188913391600401610a81565b600060405180830381600087803b15801561044957600080fd5b505af115801561045d573d6000803e3d6000fd5b50506040518681526001600160a01b03881692503391507fc76f1b4fe4396ac07a9fa55a415d4ca430e72651d37d3401f3bed7cb13fc4f129060200160405180910390a3505050505050565b604080516001600160a01b038416602482015260448082018490528251808303909101815260649091019091526020810180516001600160e01b031663a9059cbb60e01b1790526104fb908490610500565b505050565b610512826001600160a01b031661068d565b61055e5760405162461bcd60e51b815260206004820152601f60248201527f5361666545524332303a2063616c6c20746f206e6f6e2d636f6e7472616374006044820152606401610267565b600080836001600160a01b0316836040516105799190610af8565b6000604051808303816000865af19150503d80600081146105b6576040519150601f19603f3d011682016040523d82523d6000602084013e6105bb565b606091505b50915091508161060d5760405162461bcd60e51b815260206004820181905260248201527f5361666545524332303a206c6f772d6c6576656c2063616c6c206661696c65646044820152606401610267565b80511561068757808060200190518101906106289190610b33565b6106875760405162461bcd60e51b815260206004820152602a60248201527f5361666545524332303a204552433230206f7065726174696f6e20646964206e6044820152691bdd081cdd58d8d9595960b21b6064820152608401610267565b50505050565b6000813f7fc5d2460186f7233c927e7db2dcc703c0e500b653ca82273b7bfad8045d85a4708181148015906106c157508115155b949350505050565b600081518084526020808501945080840160005b838110156107025781516001600160a01b0316875295820195908201906001016106dd565b509495945050505050565b60208152600061072060208301846106c9565b9392505050565b60008083601f84011261073957600080fd5b50813567ffffffffffffffff81111561075157600080fd5b6020830191508360208260051b850101111561076c57600080fd5b9250929050565b6001600160a01b038116811461078857600080fd5b50565b600080600080600080600080600060a08a8c0312156107a957600080fd5b893567ffffffffffffffff808211156107c157600080fd5b6107cd8d838e01610727565b909b50995060208c01359150808211156107e657600080fd5b6107f28d838e01610727565b909950975060408c013591508082111561080b57600080fd5b6108178d838e01610727565b909750955060608c0135915061082c82610773565b90935060808b0135908082111561084257600080fd5b818c0191508c601f83011261085657600080fd5b81358181111561086557600080fd5b8d602082850101111561087757600080fd5b6020830194508093505050509295985092959850929598565b6000806000606084860312156108a557600080fd5b83356108b081610773565b925060208401356108c081610773565b929592945050506040919091013590565b634e487b7160e01b600052604160045260246000fd5b80516108f281610773565b919050565b6000602080838503121561090a57600080fd5b825167ffffffffffffffff8082111561092257600080fd5b818501915085601f83011261093657600080fd5b815181811115610948576109486108d1565b8060051b604051601f19603f8301168101818110858211171561096d5761096d6108d1565b60405291825284820192508381018501918883111561098b57600080fd5b938501935b828510156109b0576109a1856108e7565b84529385019392850192610990565b98975050505050505050565b634e487b7160e01b600052603260045260246000fd5b634e487b7160e01b600052601160045260246000fd5b600082198211156109fb576109fb6109d2565b500190565b600060208284031215610a1257600080fd5b813561072081610773565b600060208284031215610a2f57600080fd5b5051919050565b6000600019821415610a4a57610a4a6109d2565b5060010190565b600081518084526020808501945080840160005b8381101561070257815187529582019590820190600101610a65565b600060018060a01b03808916835260e06020840152610aa360e08401896106c9565b8381036040850152610ab58189610a51565b90508381036060850152610ac98188610a51565b959091166080840152505080830360a08201526000835261ffff9190911660c090910152602001949350505050565b6000825160005b81811015610b195760208186018101518583015201610aff565b81811115610b28576000828501525b509190910192915050565b600060208284031215610b4557600080fd5b8151801515811461072057600080fdfea2646970667358221220a199829fc46ac866ca40e93a5b8b65f6df3410efe213a259de89eb3b6cafabca64736f6c634300080c0033",
  "linkReferences": {},
  "deployedLinkReferences": {}
}