{
  "_format": "hh-sol-artifact-1",
  "contractName": "AToken",
  "sourceName": "contracts/AToken.sol",
  "abi": [
    {
      "inputs": [
        {
          "internalType": "string",
          "name": "_name",
          "type": "string"
        },
        {
          "internalType": "string",
          "name": "_symbol",
          "type": "string"
        },
        {
          "internalType": "uint8",
          "name": "_decimals",
          "type": "uint8"
        },
        {
          "internalType": "address",
          "name": "_underlyingAsset",
          "type": "address"
        },
        {
          "internalType": "address",
          "name": "_coreContract",
          "type": "address"
        }
      ],
      "stateMutability": "nonpayable",
      "type": "constructor"
    },
    {
      "anonymous": false,
      "inputs": [
        {
          "indexed": true,
          "internalType": "address",
          "name": "owner",
          "type": "address"
        },
        {
          "indexed": true,
          "internalType": "address",
          "name": "spender",
          "type": "address"
        },
        {
          "indexed": false,
          "internalType": "uint256",
          "name": "value",
          "type": "uint256"
        }
      ],
      "name": "Approval",
      "type": "event"
    },
    {
      "anonymous": false,
      "inputs": [
        {
          "indexed": true,
          "internalType": "address",
          "name": "from",
          "type": "address"
        },
        {
          "indexed": true,
          "internalType": "address",
          "name": "to",
          "type": "address"
        },
        {
          "indexed": false,
          "internalType": "uint256",
          "name": "value",
          "type": "uint256"
        }
      ],
      "name": "Transfer",
      "type": "event"
    },
    {
      "inputs": [
        {
          "internalType": "address",
          "name": "owner",
          "type": "address"
        },
        {
          "internalType": "address",
          "name": "spender",
          "type": "address"
        }
      ],
      "name": "allowance",
      "outputs": [
        {
          "internalType": "uint256",
          "name": "",
          "type": "uint256"
        }
      ],
      "stateMutability": "view",
      "type": "function"
    },
    {
      "inputs": [
        {
          "internalType": "address",
          "name": "spender",
          "type": "address"
        },
        {
          "internalType": "uint256",
          "name": "amount",
          "type": "uint256"
        }
      ],
      "name": "approve",
      "outputs": [
        {
          "internalType": "bool",
          "name": "",
          "type": "bool"
        }
      ],
      "stateMutability": "nonpayable",
      "type": "function"
    },
    {
      "inputs": [
        {
          "internalType": "address",
          "name": "account",
          "type": "address"
        }
      ],
      "name": "balanceOf",
      "outputs": [
        {
          "internalType": "uint256",
          "name": "",
          "type": "uint256"
        }
      ],
      "stateMutability": "view",
      "type": "function"
    },
    {
      "inputs": [
        {
          "internalType": "address",
          "name": "from",
          "type": "address"
        },
        {
          "internalType": "uint256",
          "name": "amount",
          "type": "uint256"
        }
      ],
      "name": "burn",
      "outputs": [],
      "stateMutability": "nonpayable",
      "type": "function"
    },
    {
      "inputs": [],
      "name": "coreContract",
      "outputs": [
        {
          "internalType": "address",
          "name": "",
          "type": "address"
        }
      ],
      "stateMutability": "view",
      "type": "function"
    },
    {
      "inputs": [],
      "name": "decimals",
      "outputs": [
        {
          "internalType": "uint8",
          "name": "",
          "type": "uint8"
        }
      ],
      "stateMutability": "view",
      "type": "function"
    },
    {
      "inputs": [
        {
          "internalType": "address",
          "name": "spender",
          "type": "address"
        },
        {
          "internalType": "uint256",
          "name": "subtractedValue",
          "type": "uint256"
        }
      ],
      "name": "decreaseAllowance",
      "outputs": [
        {
          "internalType": "bool",
          "name": "",
          "type": "bool"
        }
      ],
      "stateMutability": "nonpayable",
      "type": "function"
    },
    {
      "inputs": [
        {
          "internalType": "address",
          "name": "spender",
          "type": "address"
        },
        {
          "internalType": "uint256",
          "name": "addedValue",
          "type": "uint256"
        }
      ],
      "name": "increaseAllowance",
      "outputs": [
        {
          "internalType": "bool",
          "name": "",
          "type": "bool"
        }
      ],
      "stateMutability": "nonpayable",
      "type": "function"
    },
    {
      "inputs": [
        {
          "internalType": "address",
          "name": "to",
          "type": "address"
        },
        {
          "internalType": "uint256",
          "name": "amount",
          "type": "uint256"
        }
      ],
      "name": "mint",
      "outputs": [],
      "stateMutability": "nonpayable",
      "type": "function"
    },
    {
      "inputs": [],
      "name": "name",
      "outputs": [
        {
          "internalType": "string",
          "name": "",
          "type": "string"
        }
      ],
      "stateMutability": "view",
      "type": "function"
    },
    {
      "inputs": [],
      "name": "symbol",
      "outputs": [
        {
          "internalType": "string",
          "name": "",
          "type": "string"
        }
      ],
      "stateMutability": "view",
      "type": "function"
    },
    {
      "inputs": [],
      "name": "totalSupply",
      "outputs": [
        {
          "internalType": "uint256",
          "name": "",
          "type": "uint256"
        }
      ],
      "stateMutability": "view",
      "type": "function"
    },
    {
      "inputs": [
        {
          "internalType": "address",
          "name": "recipient",
          "type": "address"
        },
        {
          "internalType": "uint256",
          "name": "amount",
          "type": "uint256"
        }
      ],
      "name": "transfer",
      "outputs": [
        {
          "internalType": "bool",
          "name": "",
          "type": "bool"
        }
      ],
      "stateMutability": "nonpayable",
      "type": "function"
    },
    {
      "inputs": [
        {
          "internalType": "address",
          "name": "sender",
          "type": "address"
        },
        {
          "internalType": "address",
          "name": "recipient",
          "type": "address"
        },
        {
          "internalType": "uint256",
          "name": "amount",
          "type": "uint256"
        }
      ],
      "name": "transferFrom",
      "outputs": [
        {
          "internalType": "bool",
          "name": "",
          "type": "bool"
        }
      ],
      "stateMutability": "nonpayable",
      "type": "function"
    },
    {
      "inputs": [],
      "name": "underlyingAsset",
      "outputs": [
        {
          "internalType": "address",
          "name": "",
          "type": "address"
        }
      ],
      "stateMutability": "view",
      "type": "function"
    }
  ],
  "bytecode": "0x60806040523480156200001157600080fd5b5060405162000e4238038062000e4283398101604081905262000034916200023e565b845162000049906000906020880190620000ae565b5083516200005f906001906020870190620000ae565b506002805460ff949094166001600160a81b0319909416939093176101006001600160a01b039384160217909255600380546001600160a01b0319169290911691909117905550620003249050565b828054620000bc90620002e7565b90600052602060002090601f016020900481019282620000e057600085556200012b565b82601f10620000fb57805160ff19168380011785556200012b565b828001600101855582156200012b579182015b828111156200012b5782518255916020019190600101906200010e565b50620001399291506200013d565b5090565b5b808211156200013957600081556001016200013e565b634e487b7160e01b600052604160045260246000fd5b600082601f8301126200017c57600080fd5b81516001600160401b038082111562000199576200019962000154565b604051601f8301601f19908116603f01168101908282118183101715620001c457620001c462000154565b81604052838152602092508683858801011115620001e157600080fd5b600091505b83821015620002055785820183015181830184015290820190620001e6565b83821115620002175760008385830101525b9695505050505050565b80516001600160a01b03811681146200023957600080fd5b919050565b600080600080600060a086880312156200025757600080fd5b85516001600160401b03808211156200026f57600080fd5b6200027d89838a016200016a565b965060208801519150808211156200029457600080fd5b50620002a3888289016200016a565b945050604086015160ff81168114620002bb57600080fd5b9250620002cb6060870162000221565b9150620002db6080870162000221565b90509295509295909350565b600181811c90821680620002fc57607f821691505b602082108114156200031e57634e487b7160e01b600052602260045260246000fd5b50919050565b610b0e80620003346000396000f3fe608060405234801561001057600080fd5b50600436106100f55760003560e01c806370a0823111610097578063a457c2d711610066578063a457c2d71461021b578063a9059cbb1461022e578063dd62ed3e14610241578063e80db5db1461027a57600080fd5b806370a08231146101a75780637158da7c146101d057806395d89b41146102005780639dc29fac1461020857600080fd5b806323b872dd116100d357806323b872dd1461014d578063313ce56714610160578063395093511461017f57806340c10f191461019257600080fd5b806306fdde03146100fa578063095ea7b31461011857806318160ddd1461013b575b600080fd5b61010261028d565b60405161010f919061092c565b60405180910390f35b61012b61012636600461099d565b61031b565b604051901515815260200161010f565b6006545b60405190815260200161010f565b61012b61015b3660046109c7565b610331565b60025461016d9060ff1681565b60405160ff909116815260200161010f565b61012b61018d36600461099d565b610383565b6101a56101a036600461099d565b6103ba565b005b61013f6101b5366004610a03565b6001600160a01b031660009081526004602052604090205490565b6002546101e89061010090046001600160a01b031681565b6040516001600160a01b03909116815260200161010f565b610102610427565b6101a561021636600461099d565b610434565b61012b61022936600461099d565b610498565b61012b61023c36600461099d565b6104cf565b61013f61024f366004610a25565b6001600160a01b03918216600090815260056020908152604080832093909416825291909152205490565b6003546101e8906001600160a01b031681565b6000805461029a90610a58565b80601f01602080910402602001604051908101604052809291908181526020018280546102c690610a58565b80156103135780601f106102e857610100808354040283529160200191610313565b820191906000526020600020905b8154815290600101906020018083116102f657829003601f168201915b505050505081565b60006103283384846104dc565b50600192915050565b600061033e848484610601565b6001600160a01b038416600090815260056020908152604080832033808552925290912054610379918691610374908690610aa9565b6104dc565b5060019392505050565b3360008181526005602090815260408083206001600160a01b03871684529091528120549091610328918590610374908690610ac0565b6003546001600160a01b031633146104195760405162461bcd60e51b815260206004820152601f60248201527f43616c6c6572206973206e6f742074686520636f726520636f6e74726163740060448201526064015b60405180910390fd5b6104238282610768565b5050565b6001805461029a90610a58565b6003546001600160a01b0316331461048e5760405162461bcd60e51b815260206004820152601f60248201527f43616c6c6572206973206e6f742074686520636f726520636f6e7472616374006044820152606401610410565b6104238282610848565b3360008181526005602090815260408083206001600160a01b03871684529091528120549091610328918590610374908690610aa9565b6000610328338484610601565b6001600160a01b03831661053e5760405162461bcd60e51b8152602060048201526024808201527f45524332303a20617070726f76652066726f6d20746865207a65726f206164646044820152637265737360e01b6064820152608401610410565b6001600160a01b03821661059f5760405162461bcd60e51b815260206004820152602260248201527f45524332303a20617070726f766520746f20746865207a65726f206164647265604482015261737360f01b6064820152608401610410565b6001600160a01b0383811660008181526005602090815260408083209487168084529482529182902085905590518481527f8c5be1e5ebec7d5bd14f71427d1e84f3dd0314c0f7b2291e5b200ac8c7c3b92591015b60405180910390a3505050565b6001600160a01b0383166106655760405162461bcd60e51b815260206004820152602560248201527f45524332303a207472616e736665722066726f6d20746865207a65726f206164604482015264647265737360d81b6064820152608401610410565b6001600160a01b0382166106c75760405162461bcd60e51b815260206004820152602360248201527f45524332303a207472616e7366657220746f20746865207a65726f206164647260448201526265737360e81b6064820152608401610410565b6001600160a01b038316600090815260046020526040812080548392906106ef908490610aa9565b90915550506001600160a01b0382166000908152600460205260408120805483929061071c908490610ac0565b92505081905550816001600160a01b0316836001600160a01b03167fddf252ad1be2c89b69c2b068fc378daa952ba7f163c4a11628f55a4df523b3ef836040516105f491815260200190565b6001600160a01b0382166107be5760405162461bcd60e51b815260206004820152601f60248201527f45524332303a206d696e7420746f20746865207a65726f2061646472657373006044820152606401610410565b80600660008282546107d09190610ac0565b90915550506001600160a01b038216600090815260046020526040812080548392906107fd908490610ac0565b90915550506040518181526001600160a01b038316906000907fddf252ad1be2c89b69c2b068fc378daa952ba7f163c4a11628f55a4df523b3ef906020015b60405180910390a35050565b6001600160a01b0382166108a85760405162461bcd60e51b815260206004820152602160248201527f45524332303a206275726e2066726f6d20746865207a65726f206164647265736044820152607360f81b6064820152608401610410565b6001600160a01b038216600090815260046020526040812080548392906108d0908490610aa9565b9250508190555080600660008282546108e99190610aa9565b90915550506040518181526000906001600160a01b038416907fddf252ad1be2c89b69c2b068fc378daa952ba7f163c4a11628f55a4df523b3ef9060200161083c565b600060208083528351808285015260005b818110156109595785810183015185820160400152820161093d565b8181111561096b576000604083870101525b50601f01601f1916929092016040019392505050565b80356001600160a01b038116811461099857600080fd5b919050565b600080604083850312156109b057600080fd5b6109b983610981565b946020939093013593505050565b6000806000606084860312156109dc57600080fd5b6109e584610981565b92506109f360208501610981565b9150604084013590509250925092565b600060208284031215610a1557600080fd5b610a1e82610981565b9392505050565b60008060408385031215610a3857600080fd5b610a4183610981565b9150610a4f60208401610981565b90509250929050565b600181811c90821680610a6c57607f821691505b60208210811415610a8d57634e487b7160e01b600052602260045260246000fd5b50919050565b634e487b7160e01b600052601160045260246000fd5b600082821015610abb57610abb610a93565b500390565b60008219821115610ad357610ad3610a93565b50019056fea2646970667358221220af9feb291a1cea9102ba6f573b8990629604a8ebc2458f5667dda77b98847feb64736f6c634300080c0033",
  "linkReferences": {},
  "deployedLinkReferences": {}
}