{
  "_format": "hh-sol-artifact-1",
  "contractName": "YieldFiCore",
  "sourceName": "contracts/YieldFiCore.sol",
  "abi": [
    {
      "inputs": [
        {
          "internalType": "address",
          "name": "_ethOracle",
          "type": "address"
        },
        {
          "internalType": "address",
          "name": "_wbtcOracle",
          "type": "address"
        },
        {
          "internalType": "address",
          "name": "_lendingPoolAddress",
          "type": "address"
        }
      ],
      "stateMutability": "nonpayable",
      "type": "constructor"
    },
    {
      "anonymous": false,
      "inputs": [
        {
          "indexed": true,
          "internalType": "address",
          "name": "user",
          "type": "address"
        },
        {
          "indexed": true,
          "internalType": "address",
          "name": "reserve",
          "type": "address"
        },
        {
          "indexed": false,
          "internalType": "uint256",
          "name": "amount",
          "type": "uint256"
        }
      ],
      "name": "Borrow",
      "type": "event"
    },
    {
      "anonymous": false,
      "inputs": [
        {
          "indexed": true,
          "internalType": "address",
          "name": "reserve",
          "type": "address"
        },
        {
          "indexed": false,
          "internalType": "uint256",
          "name": "collateralFactor",
          "type": "uint256"
        }
      ],
      "name": "CollateralFactorUpdated",
      "type": "event"
    },
    {
      "anonymous": false,
      "inputs": [
        {
          "indexed": true,
          "internalType": "address",
          "name": "user",
          "type": "address"
        },
        {
          "indexed": true,
          "internalType": "address",
          "name": "to",
          "type": "address"
        },
        {
          "indexed": true,
          "internalType": "address",
          "name": "reserve",
          "type": "address"
        },
        {
          "indexed": false,
          "internalType": "uint256",
          "name": "amount",
          "type": "uint256"
        }
      ],
      "name": "DelegateBorrowingPower",
      "type": "event"
    },
    {
      "anonymous": false,
      "inputs": [
        {
          "indexed": true,
          "internalType": "address",
          "name": "user",
          "type": "address"
        },
        {
          "indexed": true,
          "internalType": "address",
          "name": "reserve",
          "type": "address"
        },
        {
          "indexed": false,
          "internalType": "uint256",
          "name": "amount",
          "type": "uint256"
        }
      ],
      "name": "Deposit",
      "type": "event"
    },
    {
      "anonymous": false,
      "inputs": [
        {
          "indexed": true,
          "internalType": "address",
          "name": "user",
          "type": "address"
        },
        {
          "indexed": true,
          "internalType": "address",
          "name": "reserve",
          "type": "address"
        },
        {
          "indexed": false,
          "internalType": "uint256",
          "name": "amount",
          "type": "uint256"
        }
      ],
      "name": "FlashLoan",
      "type": "event"
    },
    {
      "anonymous": false,
      "inputs": [
        {
          "indexed": true,
          "internalType": "address",
          "name": "reserve",
          "type": "address"
        },
        {
          "indexed": false,
          "internalType": "uint256",
          "name": "liquidityRate",
          "type": "uint256"
        },
        {
          "indexed": false,
          "internalType": "uint256",
          "name": "stableBorrowRate",
          "type": "uint256"
        },
        {
          "indexed": false,
          "internalType": "uint256",
          "name": "variableBorrowRate",
          "type": "uint256"
        }
      ],
      "name": "InterestRateUpdated",
      "type": "event"
    },
    {
      "anonymous": false,
      "inputs": [
        {
          "indexed": true,
          "internalType": "address",
          "name": "borrower",
          "type": "address"
        },
        {
          "indexed": true,
          "internalType": "address",
          "name": "reserve",
          "type": "address"
        },
        {
          "indexed": false,
          "internalType": "uint256",
          "name": "amount",
          "type": "uint256"
        },
        {
          "indexed": true,
          "internalType": "address",
          "name": "collateral",
          "type": "address"
        },
        {
          "indexed": false,
          "internalType": "uint256",
          "name": "collateralAmount",
          "type": "uint256"
        }
      ],
      "name": "Liquidate",
      "type": "event"
    },
    {
      "anonymous": false,
      "inputs": [
        {
          "indexed": true,
          "internalType": "address",
          "name": "reserve",
          "type": "address"
        },
        {
          "indexed": false,
          "internalType": "uint256",
          "name": "liquidationThreshold",
          "type": "uint256"
        }
      ],
      "name": "LiquidationThresholdUpdated",
      "type": "event"
    },
    {
      "anonymous": false,
      "inputs": [
        {
          "indexed": true,
          "internalType": "address",
          "name": "reserve",
          "type": "address"
        },
        {
          "indexed": true,
          "internalType": "address",
          "name": "oracle",
          "type": "address"
        }
      ],
      "name": "OracleUpdated",
      "type": "event"
    },
    {
      "anonymous": false,
      "inputs": [
        {
          "indexed": true,
          "internalType": "address",
          "name": "user",
          "type": "address"
        },
        {
          "indexed": true,
          "internalType": "address",
          "name": "reserve",
          "type": "address"
        },
        {
          "indexed": false,
          "internalType": "uint256",
          "name": "amount",
          "type": "uint256"
        }
      ],
      "name": "Repay",
      "type": "event"
    },
    {
      "anonymous": false,
      "inputs": [
        {
          "indexed": true,
          "internalType": "address",
          "name": "user",
          "type": "address"
        },
        {
          "indexed": true,
          "internalType": "address",
          "name": "reserve",
          "type": "address"
        },
        {
          "indexed": false,
          "internalType": "uint256",
          "name": "amount",
          "type": "uint256"
        },
        {
          "indexed": true,
          "internalType": "address",
          "name": "onBehalfOf",
          "type": "address"
        }
      ],
      "name": "RepayWithCollateral",
      "type": "event"
    },
    {
      "anonymous": false,
      "inputs": [
        {
          "indexed": true,
          "internalType": "address",
          "name": "reserve",
          "type": "address"
        },
        {
          "indexed": false,
          "internalType": "uint256",
          "name": "reserveFactor",
          "type": "uint256"
        }
      ],
      "name": "ReserveFactorUpdated",
      "type": "event"
    },
    {
      "anonymous": false,
      "inputs": [
        {
          "indexed": true,
          "internalType": "address",
          "name": "user",
          "type": "address"
        },
        {
          "indexed": true,
          "internalType": "address",
          "name": "reserve",
          "type": "address"
        },
        {
          "indexed": false,
          "internalType": "bool",
          "name": "useAsCollateral",
          "type": "bool"
        }
      ],
      "name": "UseAsCollateral",
      "type": "event"
    },
    {
      "anonymous": false,
      "inputs": [
        {
          "indexed": true,
          "internalType": "address",
          "name": "user",
          "type": "address"
        },
        {
          "indexed": true,
          "internalType": "address",
          "name": "reserve",
          "type": "address"
        },
        {
          "indexed": false,
          "internalType": "uint256",
          "name": "amount",
          "type": "uint256"
        }
      ],
      "name": "Withdraw",
      "type": "event"
    },
    {
      "inputs": [],
      "name": "RAY",
      "outputs": [
        {
          "internalType": "uint256",
          "name": "",
          "type": "uint256"
        }
      ],
      "stateMutability": "view",
      "type": "function"
    },
    {
      "inputs": [],
      "name": "WAD",
      "outputs": [
        {
          "internalType": "uint256",
          "name": "",
          "type": "uint256"
        }
      ],
      "stateMutability": "view",
      "type": "function"
    },
    {
      "inputs": [],
      "name": "WADNew",
      "outputs": [
        {
          "internalType": "uint256",
          "name": "",
          "type": "uint256"
        }
      ],
      "stateMutability": "view",
      "type": "function"
    },
    {
      "inputs": [
        {
          "internalType": "address",
          "name": "",
          "type": "address"
        }
      ],
      "name": "aTokenContracts",
      "outputs": [
        {
          "internalType": "address",
          "name": "",
          "type": "address"
        }
      ],
      "stateMutability": "view",
      "type": "function"
    },
    {
      "inputs": [
        {
          "internalType": "address",
          "name": "_reserve",
          "type": "address"
        },
        {
          "internalType": "uint256",
          "name": "_amount",
          "type": "uint256"
        }
      ],
      "name": "borrow",
      "outputs": [],
      "stateMutability": "nonpayable",
      "type": "function"
    },
    {
      "inputs": [
        {
          "internalType": "address",
          "name": "",
          "type": "address"
        },
        {
          "internalType": "address",
          "name": "",
          "type": "address"
        }
      ],
      "name": "borrowBalance",
      "outputs": [
        {
          "internalType": "uint256",
          "name": "",
          "type": "uint256"
        }
      ],
      "stateMutability": "view",
      "type": "function"
    },
    {
      "inputs": [
        {
          "internalType": "address",
          "name": "_reserve",
          "type": "address"
        },
        {
          "internalType": "address",
          "name": "_collateral",
          "type": "address"
        },
        {
          "internalType": "uint256",
          "name": "_debtToCover",
          "type": "uint256"
        }
      ],
      "name": "calculateCollateralAmountToSeize",
      "outputs": [
        {
          "internalType": "uint256",
          "name": "",
          "type": "uint256"
        }
      ],
      "stateMutability": "view",
      "type": "function"
    },
    {
      "inputs": [
        {
          "internalType": "address",
          "name": "_user",
          "type": "address"
        }
      ],
      "name": "calculateHealthFactor",
      "outputs": [
        {
          "internalType": "uint256",
          "name": "",
          "type": "uint256"
        }
      ],
      "stateMutability": "view",
      "type": "function"
    },
    {
      "inputs": [
        {
          "internalType": "address",
          "name": "",
          "type": "address"
        }
      ],
      "name": "collateralFactors",
      "outputs": [
        {
          "internalType": "uint256",
          "name": "",
          "type": "uint256"
        }
      ],
      "stateMutability": "view",
      "type": "function"
    },
    {
      "inputs": [
        {
          "internalType": "address",
          "name": "",
          "type": "address"
        }
      ],
      "name": "cumulatedLiquidityIndex",
      "outputs": [
        {
          "internalType": "uint256",
          "name": "",
          "type": "uint256"
        }
      ],
      "stateMutability": "view",
      "type": "function"
    },
    {
      "inputs": [
        {
          "internalType": "address",
          "name": "",
          "type": "address"
        }
      ],
      "name": "cumulatedVariableBorrowIndex",
      "outputs": [
        {
          "internalType": "uint256",
          "name": "",
          "type": "uint256"
        }
      ],
      "stateMutability": "view",
      "type": "function"
    },
    {
      "inputs": [
        {
          "internalType": "address",
          "name": "_to",
          "type": "address"
        },
        {
          "internalType": "address",
          "name": "_reserve",
          "type": "address"
        },
        {
          "internalType": "uint256",
          "name": "_amount",
          "type": "uint256"
        }
      ],
      "name": "delegateBorrowingPower",
      "outputs": [],
      "stateMutability": "nonpayable",
      "type": "function"
    },
    {
      "inputs": [
        {
          "internalType": "address",
          "name": "_reserve",
          "type": "address"
        },
        {
          "internalType": "uint256",
          "name": "_amount",
          "type": "uint256"
        }
      ],
      "name": "deposit",
      "outputs": [],
      "stateMutability": "nonpayable",
      "type": "function"
    },
    {
      "inputs": [
        {
          "internalType": "address[]",
          "name": "assets",
          "type": "address[]"
        },
        {
          "internalType": "uint256[]",
          "name": "amounts",
          "type": "uint256[]"
        },
        {
          "internalType": "uint256[]",
          "name": "premiums",
          "type": "uint256[]"
        },
        {
          "internalType": "address",
          "name": "initiator",
          "type": "address"
        },
        {
          "internalType": "bytes",
          "name": "",
          "type": "bytes"
        }
      ],
      "name": "executeOperation",
      "outputs": [
        {
          "internalType": "bool",
          "name": "",
          "type": "bool"
        }
      ],
      "stateMutability": "nonpayable",
      "type": "function"
    },
    {
      "inputs": [
        {
          "internalType": "address",
          "name": "_receiver",
          "type": "address"
        },
        {
          "internalType": "address",
          "name": "_reserve",
          "type": "address"
        },
        {
          "internalType": "uint256",
          "name": "_amount",
          "type": "uint256"
        }
      ],
      "name": "flashLoan",
      "outputs": [],
      "stateMutability": "nonpayable",
      "type": "function"
    },
    {
      "inputs": [],
      "name": "getAllReserves",
      "outputs": [
        {
          "internalType": "address[]",
          "name": "",
          "type": "address[]"
        }
      ],
      "stateMutability": "view",
      "type": "function"
    },
    {
      "inputs": [
        {
          "internalType": "address",
          "name": "",
          "type": "address"
        },
        {
          "internalType": "address",
          "name": "",
          "type": "address"
        }
      ],
      "name": "isCollateralEnabled",
      "outputs": [
        {
          "internalType": "bool",
          "name": "",
          "type": "bool"
        }
      ],
      "stateMutability": "view",
      "type": "function"
    },
    {
      "inputs": [],
      "name": "lendingPoolAddress",
      "outputs": [
        {
          "internalType": "address",
          "name": "",
          "type": "address"
        }
      ],
      "stateMutability": "view",
      "type": "function"
    },
    {
      "inputs": [
        {
          "internalType": "address",
          "name": "_borrower",
          "type": "address"
        },
        {
          "internalType": "address",
          "name": "_reserve",
          "type": "address"
        },
        {
          "internalType": "uint256",
          "name": "_amount",
          "type": "uint256"
        },
        {
          "internalType": "address",
          "name": "_collateral",
          "type": "address"
        }
      ],
      "name": "liquidate",
      "outputs": [],
      "stateMutability": "nonpayable",
      "type": "function"
    },
    {
      "inputs": [
        {
          "internalType": "address",
          "name": "",
          "type": "address"
        }
      ],
      "name": "liquidationThresholds",
      "outputs": [
        {
          "internalType": "uint256",
          "name": "",
          "type": "uint256"
        }
      ],
      "stateMutability": "view",
      "type": "function"
    },
    {
      "inputs": [
        {
          "internalType": "address",
          "name": "",
          "type": "address"
        }
      ],
      "name": "normalizedIncomeIndex",
      "outputs": [
        {
          "internalType": "uint256",
          "name": "",
          "type": "uint256"
        }
      ],
      "stateMutability": "view",
      "type": "function"
    },
    {
      "inputs": [
        {
          "internalType": "address",
          "name": "",
          "type": "address"
        }
      ],
      "name": "priceOracles",
      "outputs": [
        {
          "internalType": "address",
          "name": "",
          "type": "address"
        }
      ],
      "stateMutability": "view",
      "type": "function"
    },
    {
      "inputs": [
        {
          "internalType": "address",
          "name": "",
          "type": "address"
        },
        {
          "internalType": "address",
          "name": "",
          "type": "address"
        }
      ],
      "name": "principalBorrowBalance",
      "outputs": [
        {
          "internalType": "uint256",
          "name": "",
          "type": "uint256"
        }
      ],
      "stateMutability": "view",
      "type": "function"
    },
    {
      "inputs": [
        {
          "internalType": "address",
          "name": "_reserve",
          "type": "address"
        },
        {
          "internalType": "uint256",
          "name": "_amount",
          "type": "uint256"
        }
      ],
      "name": "repay",
      "outputs": [],
      "stateMutability": "nonpayable",
      "type": "function"
    },
    {
      "inputs": [
        {
          "internalType": "address",
          "name": "_reserve",
          "type": "address"
        },
        {
          "internalType": "uint256",
          "name": "_amount",
          "type": "uint256"
        },
        {
          "internalType": "address",
          "name": "_onBehalfOf",
          "type": "address"
        }
      ],
      "name": "repayWithCollateral",
      "outputs": [],
      "stateMutability": "nonpayable",
      "type": "function"
    },
    {
      "inputs": [
        {
          "internalType": "address",
          "name": "",
          "type": "address"
        }
      ],
      "name": "reserveFactors",
      "outputs": [
        {
          "internalType": "uint256",
          "name": "",
          "type": "uint256"
        }
      ],
      "stateMutability": "view",
      "type": "function"
    },
    {
      "inputs": [
        {
          "internalType": "address",
          "name": "",
          "type": "address"
        },
        {
          "internalType": "address",
          "name": "",
          "type": "address"
        }
      ],
      "name": "scaledUserBalance",
      "outputs": [
        {
          "internalType": "uint256",
          "name": "",
          "type": "uint256"
        }
      ],
      "stateMutability": "view",
      "type": "function"
    },
    {
      "inputs": [
        {
          "internalType": "address",
          "name": "_reserve",
          "type": "address"
        },
        {
          "internalType": "uint256",
          "name": "_collateralFactor",
          "type": "uint256"
        }
      ],
      "name": "setCollateralFactor",
      "outputs": [],
      "stateMutability": "nonpayable",
      "type": "function"
    },
    {
      "inputs": [
        {
          "internalType": "address",
          "name": "_reserve",
          "type": "address"
        },
        {
          "internalType": "uint256",
          "name": "_liquidationThreshold",
          "type": "uint256"
        }
      ],
      "name": "setLiquidationThreshold",
      "outputs": [],
      "stateMutability": "nonpayable",
      "type": "function"
    },
    {
      "inputs": [
        {
          "internalType": "address",
          "name": "_reserve",
          "type": "address"
        },
        {
          "internalType": "address",
          "name": "_oracle",
          "type": "address"
        }
      ],
      "name": "setOracle",
      "outputs": [],
      "stateMutability": "nonpayable",
      "type": "function"
    },
    {
      "inputs": [
        {
          "internalType": "address",
          "name": "_reserve",
          "type": "address"
        },
        {
          "internalType": "uint256",
          "name": "_reserveFactor",
          "type": "uint256"
        }
      ],
      "name": "setReserveFactor",
      "outputs": [],
      "stateMutability": "nonpayable",
      "type": "function"
    },
    {
      "inputs": [
        {
          "internalType": "address",
          "name": "",
          "type": "address"
        }
      ],
      "name": "totalBorrow",
      "outputs": [
        {
          "internalType": "uint256",
          "name": "",
          "type": "uint256"
        }
      ],
      "stateMutability": "view",
      "type": "function"
    },
    {
      "inputs": [
        {
          "internalType": "address",
          "name": "",
          "type": "address"
        }
      ],
      "name": "totalSupply",
      "outputs": [
        {
          "internalType": "uint256",
          "name": "",
          "type": "uint256"
        }
      ],
      "stateMutability": "view",
      "type": "function"
    },
    {
      "inputs": [
        {
          "internalType": "address",
          "name": "_reserve",
          "type": "address"
        },
        {
          "internalType": "bool",
          "name": "_useAsCollateral",
          "type": "bool"
        }
      ],
      "name": "useAsCollateral",
      "outputs": [],
      "stateMutability": "nonpayable",
      "type": "function"
    },
    {
      "inputs": [
        {
          "internalType": "address",
          "name": "",
          "type": "address"
        },
        {
          "internalType": "address",
          "name": "",
          "type": "address"
        }
      ],
      "name": "userBalance",
      "outputs": [
        {
          "internalType": "uint256",
          "name": "",
          "type": "uint256"
        }
      ],
      "stateMutability": "view",
      "type": "function"
    },
    {
      "inputs": [
        {
          "internalType": "address",
          "name": "",
          "type": "address"
        }
      ],
      "name": "variableDebtTokenContracts",
      "outputs": [
        {
          "internalType": "address",
          "name": "",
          "type": "address"
        }
      ],
      "stateMutability": "view",
      "type": "function"
    },
    {
      "inputs": [
        {
          "internalType": "address",
          "name": "_reserve",
          "type": "address"
        },
        {
          "internalType": "uint256",
          "name": "_amount",
          "type": "uint256"
        }
      ],
      "name": "withdraw",
      "outputs": [],
      "stateMutability": "nonpayable",
      "type": "function"
    },
    {
      "inputs": [],
      "name": "yieldFiAdmin",
      "outputs": [
        {
          "internalType": "contract YieldFiAdmin",
          "name": "",
          "type": "address"
        }
      ],
      "stateMutability": "view",
      "type": "function"
    },
    {
      "inputs": [],
      "name": "yieldFiAdminInterface",
      "outputs": [
        {
          "internalType": "contract YieldFiAdmin",
          "name": "",
          "type": "address"
        }
      ],
      "stateMutability": "view",
      "type": "function"
    },
    {
      "inputs": [],
      "name": "yieldFiCollateralInterface",
      "outputs": [
        {
          "internalType": "contract YieldFiCollateral",
          "name": "",
          "type": "address"
        }
      ],
      "stateMutability": "view",
      "type": "function"
    },
    {
      "inputs": [],
      "name": "yieldFiCore",
      "outputs": [
        {
          "internalType": "address",
          "name": "",
          "type": "address"
        }
      ],
      "stateMutability": "view",
      "type": "function"
    },
    {
      "inputs": [],
      "name": "yieldFiFlashLoanInterface",
      "outputs": [
        {
          "internalType": "contract YieldFiFlashLoan",
          "name": "",
          "type": "address"
        }
      ],
      "stateMutability": "view",
      "type": "function"
    }
  ],
  "bytecode": "0x60806040523480156200001157600080fd5b5060405162005aba38038062005aba83398101604081905262000034916200011b565b600160008181558154306001600160a01b03199182168117909355600a805482166001600160a01b03958616179055600b8054821684179055600c8054821684179055600d8054821690931790925560136020527f98c364b90ea4ec9342eb51527e19c3090c7b8f164fd92f7adcef9350985670b98054831695841695909517909455712260fac5e5542a773aa44fbcfedf7c11c5999093527ffa5c3cab6cf809330c204d59993857bf45e51a99548a6b6f18f05c75177acf2c8054909316911617905562000165565b80516001600160a01b03811681146200011657600080fd5b919050565b6000806000606084860312156200013157600080fd5b6200013c84620000fe565b92506200014c60208501620000fe565b91506200015c60408501620000fe565b90509250925092565b61594580620001756000396000f3fe60806040523480156200001157600080fd5b5060043610620002915760003560e01c80637d0e16bb1162000161578063b49bbd6011620000d3578063ccdbe8b11162000092578063ccdbe8b114620006c9578063d3ae26b314620006f7578063dd6d1954146200070b578063e4dc2aa4146200072e578063e842cc281462000751578063f3fef3a3146200076857600080fd5b8063b49bbd60146200064d578063bcfa3b651462000664578063bef467e11462000687578063c04f31ff146200069b578063c72987cc14620006b257600080fd5b80639345195411620001205780639345195414620005c35780639b925dfd14620005da5780639ce625f714620005ee5780639d9638a114620006055780639e716d58146200061c57600080fd5b80637d0e16bb146200050c57806385e7e87b146200052f5780638c52025a146200055b57806391e67ff81462000587578063920f5c84146200059b57600080fd5b80634dc7ea9911620002075780635c38eb3a11620001c65780635c38eb3a146200045d57806362a4b0a914620004745780636a146024146200030f5780636aa701bf14620004a257806377d0276c14620004bb5780637832743814620004e957600080fd5b80634dc7ea9914620003b25780634ece7f9a14620003d557806351702ad114620003f8578063552033c41462000426578063572d9888146200043a57600080fd5b80633de2f6b211620002545780633de2f6b2146200034257806347e7ef2414620003595780634b4e675314620003705780634b8a352914620003875780634cff1e15146200039e57600080fd5b80630137451814620002965780630e30428d14620002df57806322867d7814620002f857806327f94dd8146200030f5780633b2a5da8146200032e575b600080fd5b620002c2620002a73660046200316e565b6013602052600090815260409020546001600160a01b031681565b6040516001600160a01b0390911681526020015b60405180910390f35b620002f6620002f03660046200318e565b6200077f565b005b620002f6620003093660046200318e565b62000855565b6200031f670de0b6b3a764000081565b604051908152602001620002d6565b600d54620002c2906001600160a01b031681565b620002f662000353366004620031bd565b62000aea565b620002f66200036a3660046200318e565b62000f66565b620002f6620003813660046200318e565b62001234565b620002f6620003983660046200318e565b620012f3565b600c54620002c2906001600160a01b031681565b6200031f620003c33660046200316e565b60146020526000908152604090205481565b6200031f620003e63660046200316e565b60096020526000908152604090205481565b6200031f6200040936600462003217565b600e60209081526000928352604080842090915290825290205481565b6200031f6b033b2e3c9fd0803ce800000081565b6200031f6200044b3660046200316e565b60106020526000908152604090205481565b620002f66200046e36600462003217565b6200161d565b6200031f6200048536600462003217565b600460209081526000928352604080842090915290825290205481565b620004ac62001674565b604051620002d691906200329b565b6200031f620004cc36600462003217565b600660209081526000928352604080842090915290825290205481565b6200031f620004fa3660046200316e565b60116020526000908152604090205481565b6200031f6200051d3660046200316e565b60126020526000908152604090205481565b620002c2620005403660046200316e565b6007602052600090815260409020546001600160a01b031681565b620002c26200056c3660046200316e565b6015602052600090815260409020546001600160a01b031681565b600254620002c2906001600160a01b031681565b620005b2620005ac366004620032ff565b620016ee565b6040519015158152602001620002d6565b620002f6620005d436600462003414565b6200188e565b600b54620002c2906001600160a01b031681565b6200031f620005ff3660046200316e565b62001ba2565b620002f6620006163660046200345b565b62001d5c565b620005b26200062d36600462003217565b600360209081526000928352604080842090915290825290205460ff1681565b6200031f6200065e3660046200345b565b62001f17565b6200031f620006753660046200316e565b600f6020526000908152604090205481565b600154620002c2906001600160a01b031681565b620002f6620006ac3660046200318e565b620020ef565b620002f6620006c33660046200345b565b620021b1565b6200031f620006da36600462003217565b600560209081526000928352604080842090915290825290205481565b600a54620002c2906001600160a01b031681565b6200031f6200071c3660046200316e565b60086020526000908152604090205481565b6200031f6200073f3660046200316e565b60166020526000908152604090205481565b620002f662000762366004620034b0565b620022dc565b620002f6620007793660046200318e565b620023ba565b670de0b6b3a7640000811115620007fb5760405162461bcd60e51b815260206004820152603560248201527f4c69717569646174696f6e207468726573686f6c64206d757374206265206c656044820152747373207468616e206f7220657175616c20746f203160581b60648201526084015b60405180910390fd5b6001600160a01b03821660008181526011602052604090819020839055517f6878ed75c44e443b25c5b254964ed8a88f572e4cc8761951cbe3810ba19e282590620008499084815260200190565b60405180910390a25050565b600260005414156200087b5760405162461bcd60e51b8152600401620007f290620034e3565b600260005580620008a05760405162461bcd60e51b8152600401620007f2906200351a565b3360009081526005602090815260408083206001600160a01b0386168452909152902054811115620008e65760405162461bcd60e51b8152600401620007f2906200354f565b620008fd6001600160a01b0383163330846200265c565b6200090882620026cf565b6001600160a01b0382166000908152601460205260408120546200092e90839062002a36565b3360009081526005602090815260408083206001600160a01b0388168452909152812080549293508392909190620009689084906200359c565b90915550503360009081526006602090815260408083206001600160a01b038716845290915281208054849290620009a29084906200359c565b90915550506001600160a01b03831660009081526008602052604081208054839290620009d19084906200359c565b90915550506001600160a01b03808416600090815260076020526040902054168062000a3c5760405162461bcd60e51b815260206004820152601960248201527815985c9a58589b195119589d151bdad95b881b9bdd081cd95d603a1b6044820152606401620007f2565b604051632770a7eb60e21b8152336004820152602481018490526001600160a01b03821690639dc29fac90604401600060405180830381600087803b15801562000a8557600080fd5b505af115801562000a9a573d6000803e3d6000fd5b50506040518581526001600160a01b03871692503391507f05f2eeda0e08e4b437f487c8d7d29b14537d15e3488170dc3de5dbdf8dac4684906020015b60405180910390a3505060016000555050565b6002600054141562000b105760405162461bcd60e51b8152600401620007f290620034e3565b60026000558162000b355760405162461bcd60e51b8152600401620007f2906200351a565b6001600160a01b0380851660009081526005602090815260408083209387168352929052205482111562000b7d5760405162461bcd60e51b8152600401620007f2906200354f565b6001600160a01b0380851660009081526003602090815260408083209385168352929052205460ff1662000bed5760405162461bcd60e51b815260206004820152601660248201527510dbdb1b185d195c985b081b9bdd08195b98589b195960521b6044820152606401620007f2565b600062000bfa8562001ba2565b6001600160a01b038316600090815260116020526040902054909150811062000c5c5760405162461bcd60e51b8152602060048201526013602482015272426f72726f776572206973206865616c74687960681b6044820152606401620007f2565b600062000c6b85848662001f17565b6001600160a01b03808516600090815260076020526040902054919250168062000cd85760405162461bcd60e51b815260206004820152601c60248201527f436f6c6c61746572616c2044656274546f6b656e206e6f7420736574000000006044820152606401620007f2565b604051632142170760e11b81526001600160a01b038881166004830152336024830152604482018490528216906342842e0e906064016020604051808303816000875af115801562000d2e573d6000803e3d6000fd5b505050506040513d601f19601f8201168201806040525081019062000d549190620035b6565b506001600160a01b03861660009081526014602052604081205462000d7b90879062002a36565b6001600160a01b03808a166000908152600560209081526040808320938c1683529290529081208054929350839290919062000db99084906200359c565b90915550506001600160a01b038089166000908152600660209081526040808320938b168352929052908120805488929062000df79084906200359c565b90915550506001600160a01b0387166000908152600860205260408120805483929062000e269084906200359c565b90915550506001600160a01b03808816600090815260076020526040902054168062000e915760405162461bcd60e51b815260206004820152601960248201527815985c9a58589b195119589d151bdad95b881b9bdd081cd95d603a1b6044820152606401620007f2565b604051632770a7eb60e21b81526001600160a01b038a8116600483015260248201899052821690639dc29fac90604401600060405180830381600087803b15801562000edc57600080fd5b505af115801562000ef1573d6000803e3d6000fd5b50505050856001600160a01b0316886001600160a01b03168a6001600160a01b03167f508ace25d2191f9a79453c1402d3c1c7d648938de0ccb1eaa54167f3be63f49c8a8860405162000f4e929190918252602082015260400190565b60405180910390a45050600160005550505050505050565b6002600054141562000f8c5760405162461bcd60e51b8152600401620007f290620034e3565b60026000558062000fb15760405162461bcd60e51b8152600401620007f2906200351a565b62000fc86001600160a01b0383163330846200265c565b62000fd382620026cf565b6001600160a01b03821660009081526014602052604081205462000ff990839062002a36565b3360009081526004602090815260408083206001600160a01b038816845290915281208054929350849290919062001033908490620035d6565b9091555050336000908152600e602090815260408083206001600160a01b0387168452909152812080548392906200106d908490620035d6565b90915550506001600160a01b038316600090815260166020526040812080548492906200109c908490620035d6565b90915550506001600160a01b0380841660009081526015602052604090205416806200119457836001600160a01b031663313ce5676040518163ffffffff1660e01b8152600401602060405180830381865afa15801562001101573d6000803e3d6000fd5b505050506040513d601f19601f8201168201806040525081019062001127919062003608565b8430604051620011379062003139565b620011459392919062003626565b604051809103906000f08015801562001162573d6000803e3d6000fd5b506001600160a01b03858116600090815260156020526040902080546001600160a01b03191691831691909117905590505b6040516340c10f1960e01b8152336004820152602481018490526001600160a01b038216906340c10f1990604401600060405180830381600087803b158015620011dd57600080fd5b505af1158015620011f2573d6000803e3d6000fd5b50506040518581526001600160a01b03871692503391507f5548c837ab068cf56a2c2479df0882a4922fd203edb7517321831d95078c5f629060200162000ad7565b670de0b6b3a7640000811115620012a55760405162461bcd60e51b815260206004820152602e60248201527f5265736572766520666163746f72206d757374206265206c657373207468616e60448201526d206f7220657175616c20746f203160901b6064820152608401620007f2565b6001600160a01b03821660008181526012602052604090819020839055517fa9e6d8c6a7ceab34e1bbc36191cd138bd9190f9e9e04482afb77cecc652720b690620008499084815260200190565b60026000541415620013195760405162461bcd60e51b8152600401620007f290620034e3565b6002600055806200133e5760405162461bcd60e51b8152600401620007f2906200351a565b6001600160a01b03821660009081526016602090815260408083205460089092529091205462001370908390620035d6565b1115620013b95760405162461bcd60e51b8152602060048201526016602482015275496e73756666696369656e74206c697175696469747960501b6044820152606401620007f2565b620013c482620026cf565b3360009081526005602090815260408083206001600160a01b038616845290915281208054839290620013f9908490620035d6565b90915550503360009081526006602090815260408083206001600160a01b03861684529091528120805483929062001433908490620035d6565b90915550506001600160a01b0382166000908152600860205260408120805483929062001462908490620035d6565b90915550506001600160a01b0380831660009081526007602052604090205416806200155a57826001600160a01b031663313ce5676040518163ffffffff1660e01b8152600401602060405180830381865afa158015620014c7573d6000803e3d6000fd5b505050506040513d601f19601f82011682018060405250810190620014ed919062003608565b8330604051620014fd9062003147565b6200150b939291906200368b565b604051809103906000f08015801562001528573d6000803e3d6000fd5b506001600160a01b03848116600090815260076020526040902080546001600160a01b03191691831691909117905590505b6040516340c10f1960e01b8152336004820152602481018390526001600160a01b038216906340c10f1990604401600060405180830381600087803b158015620015a357600080fd5b505af1158015620015b8573d6000803e3d6000fd5b50620015d3925050506001600160a01b038416338462002b28565b6040518281526001600160a01b0384169033907f312a5e5e1079f5dda4e95dbbd0b908b291fd5b992ef22073643ab691572c5b529060200160405180910390a35050600160005550565b6001600160a01b0382811660008181526013602052604080822080546001600160a01b0319169486169485179055517f078c3b417dadf69374a59793b829c52001247130433427049317bde56607b1b79190a35050565b600a54604080516334651b6f60e21b815290516060926001600160a01b03169163d1946dbc9160048083019260009291908290030181865afa158015620016bf573d6000803e3d6000fd5b505050506040513d6000823e601f3d908101601f19168201604052620016e9919081019062003720565b905090565b6000805b898110156200187d576000878783818110620017125762001712620037f3565b905060200201358a8a848181106200172e576200172e620037f3565b90506020020135620017419190620035d6565b9050808c8c84818110620017595762001759620037f3565b90506020020160208101906200177091906200316e565b6040516370a0823160e01b81523060048201526001600160a01b0391909116906370a0823190602401602060405180830381865afa158015620017b7573d6000803e3d6000fd5b505050506040513d601f19601f82011682018060405250810190620017dd919062003809565b1015620018245760405162461bcd60e51b8152602060048201526014602482015273119b185cda1b1bd85b881b9bdd081c995c185a5960621b6044820152606401620007f2565b6200186786828e8e868181106200183f576200183f620037f3565b90506020020160208101906200185691906200316e565b6001600160a01b0316919062002b28565b5080620018748162003823565b915050620016f2565b5060019a9950505050505050505050565b60008211620018b15760405162461bcd60e51b8152600401620007f2906200351a565b6001600160a01b03808216600090815260056020908152604080832093871683529290522054821115620018f95760405162461bcd60e51b8152600401620007f2906200354f565b6001600160a01b0380821660009081526003602090815260408083209387168352929052205460ff16620019695760405162461bcd60e51b815260206004820152601660248201527510dbdb1b185d195c985b081b9bdd08195b98589b195960521b6044820152606401620007f2565b6001600160a01b0383811660009081526007602052604090819020549051632142170760e11b8152336004820152306024820152604481018590529116906342842e0e906064016020604051808303816000875af1158015620019d0573d6000803e3d6000fd5b505050506040513d601f19601f82011682018060405250810190620019f69190620035b6565b506001600160a01b03831660009081526009602052604081205462001a1d90849062002a36565b6001600160a01b03808416600090815260056020908152604080832093891683529290529081208054929350839290919062001a5b9084906200359c565b90915550506001600160a01b0380831660009081526006602090815260408083209388168352929052908120805483929062001a999084906200359c565b90915550506001600160a01b0384166000908152600860205260408120805483929062001ac89084906200359c565b90915550506001600160a01b0384811660009081526007602052604090819020549051632770a7eb60e21b8152848316600482015260248101869052911690639dc29fac90604401600060405180830381600087803b15801562001b2b57600080fd5b505af115801562001b40573d6000803e3d6000fd5b50505050816001600160a01b0316846001600160a01b0316336001600160a01b03167fd852938a229fd159abe80f48925d4fd2e5215e95baa1b8dc44e54ed0ca52f4f38660405162001b9491815260200190565b60405180910390a450505050565b600c5460408051636aa701bf60e01b815290516000928392839283926001600160a01b031691636aa701bf91600480830192869291908290030181865afa15801562001bf2573d6000803e3d6000fd5b505050506040513d6000823e601f3d908101601f1916820160405262001c1c919081019062003720565b905060005b815181101562001d1f57600082828151811062001c425762001c42620037f3565b6020908102919091010151600b546040516313ce2dab60e31b81526001600160a01b038a811660048301528084166024830152929350911690639e716d5890604401602060405180830381865afa15801562001ca2573d6000803e3d6000fd5b505050506040513d601f19601f8201168201806040525081019062001cc89190620035b6565b1562001cee57600062001cdc888362002b5f565b905062001cea8187620035d6565b9550505b62001cfa878262002c69565b62001d069085620035d6565b935050808062001d169062003823565b91505062001c21565b508162001d325750600019949350505050565b8162001d47670de0b6b3a76400008562003841565b62001d53919062003863565b95945050505050565b6000811162001d7f5760405162461bcd60e51b8152600401620007f2906200351a565b60408051600180825281830190925260009160208083019080368337019050509050828160008151811062001db85762001db8620037f3565b6001600160a01b039290921660209283029190910190910152604080516001808252818301909252600091816020016020820280368337019050509050828160008151811062001e0c5762001e0c620037f3565b602090810291909101015260408051600180825281830190925260009181602001602082028036833701905050905060008160008151811062001e535762001e53620037f3565b6020908102919091010152600a5460405163ab9c4b5d60e01b81526001600160a01b039091169063ab9c4b5d9062001e9b9089908790879087903390600090600401620038b8565b600060405180830381600087803b15801562001eb657600080fd5b505af115801562001ecb573d6000803e3d6000fd5b50506040518681526001600160a01b03881692503391507fc76f1b4fe4396ac07a9fa55a415d4ca430e72651d37d3401f3bed7cb13fc4f129060200160405180910390a3505050505050565b60008062001f258462002da6565b9050600062001f348662002da6565b90506000856001600160a01b031663313ce5676040518163ffffffff1660e01b8152600401602060405180830381865afa15801562001f77573d6000803e3d6000fd5b505050506040513d601f19601f8201168201806040525081019062001f9d919062003608565b60ff1690506000876001600160a01b031663313ce5676040518163ffffffff1660e01b8152600401602060405180830381865afa15801562001fe3573d6000803e3d6000fd5b505050506040513d601f19601f8201168201806040525081019062002009919062003608565b600d54604051630f064e8760e31b81526001600160a01b038a8116600483015260ff939093169350600092670de0b6b3a7640000921690637832743890602401602060405180830381865afa15801562002067573d6000803e3d6000fd5b505050506040513d601f19601f820116820180604052508101906200208d919062003809565b62002099848862003841565b620020a5919062003841565b620020b285600a62003a32565b620020be878b62003841565b620020ca919062003841565b620020d6919062003863565b620020e2919062003863565b9998505050505050505050565b670de0b6b3a7640000811115620021635760405162461bcd60e51b815260206004820152603160248201527f436f6c6c61746572616c20666163746f72206d757374206265206c657373207460448201527068616e206f7220657175616c20746f203160781b6064820152608401620007f2565b6001600160a01b03821660008181526010602052604090819020839055517f275d6207ccd4271a12c584febf2bcf32254205dfb4639ce1a9184d2e2609e2d090620008499084815260200190565b60008111620021d45760405162461bcd60e51b8152600401620007f2906200351a565b3360009081526005602090815260408083206001600160a01b03861684529091529020548111156200221a5760405162461bcd60e51b8152600401620007f2906200354f565b6001600160a01b0380841660009081526005602090815260408083209386168352929052908120805483929062002253908490620035d6565b90915550503360009081526005602090815260408083206001600160a01b0386168452909152812080548392906200228d9084906200359c565b90915550506040518181526001600160a01b03808416919085169033907fffde7b192559a173d2705606713f80f5e1e4ab80e37efae9d3134bec05d1d0f99060200160405180910390a4505050565b3360009081526004602090815260408083206001600160a01b03861684529091529020546200234e5760405162461bcd60e51b815260206004820152601f60248201527f4e6f2062616c616e636520746f2075736520617320636f6c6c61746572616c006044820152606401620007f2565b3360008181526003602090815260408083206001600160a01b03871680855290835292819020805460ff191686151590811790915590519081529192917fa142a156353950634c7dae3a75c4e31515685517647c36592d9d9261fbbf2d0f910160405180910390a35050565b60026000541415620023e05760405162461bcd60e51b8152600401620007f290620034e3565b600260005580620024055760405162461bcd60e51b8152600401620007f2906200351a565b3360009081526004602090815260408083206001600160a01b0386168452909152902054811115620024715760405162461bcd60e51b8152602060048201526014602482015273496e73756666696369656e742062616c616e636560601b6044820152606401620007f2565b6200247c82620026cf565b6001600160a01b038216600090815260146020526040812054620024a290839062002a36565b3360009081526004602090815260408083206001600160a01b0388168452909152812080549293508492909190620024dc9084906200359c565b9091555050336000908152600e602090815260408083206001600160a01b038716845290915281208054839290620025169084906200359c565b90915550506001600160a01b03831660009081526016602052604081208054849290620025459084906200359c565b90915550506001600160a01b038084166000908152601560205260409020541680620025a55760405162461bcd60e51b815260206004820152600e60248201526d18551bdad95b881b9bdd081cd95d60921b6044820152606401620007f2565b604051632770a7eb60e21b8152336004820152602481018490526001600160a01b03821690639dc29fac90604401600060405180830381600087803b158015620025ee57600080fd5b505af115801562002603573d6000803e3d6000fd5b506200261e925050506001600160a01b038516338562002b28565b6040518381526001600160a01b0385169033907f9b1bfa7fa9ee420a16e124f794c35ac9f90472acc99140eb2f6447c714cad8eb9060200162000ad7565b6040516001600160a01b0380851660248301528316604482015260648101829052620026c99085906323b872dd60e01b906084015b60408051601f198184030181529190526020810180516001600160e01b03166001600160e01b03199093169290921790915262002e90565b50505050565b600a546040516335ea6a7560e01b81526001600160a01b03838116600483015260009283928392839283928392839216906335ea6a759060240161016060405180830381865afa15801562002728573d6000803e3d6000fd5b505050506040513d601f19601f820116820180604052508101906200274e919062003a58565b505098509850985050975097509750975050428364ffffffffff1614156200277a575050505050505050565b6001600160a01b0388166000908152600f602090815260408083206001600160801b03808c16909155600990925282208882169055620027fc906b033b2e3c9fd0803ce800000090620027d09089168262002a36565b620027dc9190620035d6565b6001600160a01b038b166000908152601460205260409020549062003026565b6001600160a01b03808b1660009081526014602052604090208290559091508316620028f457886001600160a01b031663313ce5676040518163ffffffff1660e01b8152600401602060405180830381865afa15801562002861573d6000803e3d6000fd5b505050506040513d601f19601f8201168201806040525081019062002887919062003608565b8930604051620028979062003139565b620028a59392919062003626565b604051809103906000f080158015620028c2573d6000803e3d6000fd5b506001600160a01b038a8116600090815260156020526040902080546001600160a01b03191691831691909117905592505b6001600160a01b038216620029d557886001600160a01b031663313ce5676040518163ffffffff1660e01b8152600401602060405180830381865afa15801562002942573d6000803e3d6000fd5b505050506040513d601f19601f8201168201806040525081019062002968919062003608565b8930604051620029789062003147565b62002986939291906200368b565b604051809103906000f080158015620029a3573d6000803e3d6000fd5b506001600160a01b038a8116600090815260076020526040902080546001600160a01b03191691831691909117905591505b604080516001600160801b0388811682526000602083015287168183015290516001600160a01b038b16917ffe6503c3ffa4f15f70414cb7846d0be83ef955bddd428112d917adc8d3a06ec3919081900360600190a2505050505050505050565b604080518082019091526002815261035360f41b60208201526000908262002a735760405162461bcd60e51b8152600401620007f2919062003b72565b50600062002a8360028462003863565b90506b033b2e3c9fd0803ce800000062002aa0826000196200359c565b62002aac919062003863565b84111560405180604001604052806002815260200161068760f31b8152509062002aeb5760405162461bcd60e51b8152600401620007f2919062003b72565b50828162002b066b033b2e3c9fd0803ce80000008762003841565b62002b129190620035d6565b62002b1e919062003863565b9150505b92915050565b6040516001600160a01b03831660248201526044810182905262002b5a90849063a9059cbb60e01b9060640162002691565b505050565b6001600160a01b038083166000908152600e60209081526040808320938516835292815282822054600f909152918120549091908262002b9f8562002da6565b600d54604051630ae5b31160e31b81526001600160a01b0388811660048301529293506000929091169063572d988890602401602060405180830381865afa15801562002bf0573d6000803e3d6000fd5b505050506040513d601f19601f8201168201806040525081019062002c16919062003809565b905062002c2c670de0b6b3a76400008062003841565b818362002c3a868862003841565b62002c46919062003841565b62002c52919062003841565b62002c5e919062003863565b979650505050505050565b600b5460405163ccdbe8b160e01b81526001600160a01b0384811660048301528381166024830152600092839291169063ccdbe8b190604401602060405180830381865afa15801562002cc0573d6000803e3d6000fd5b505050506040513d601f19601f8201168201806040525081019062002ce6919062003809565b600b546040516327673fcd60e11b81526001600160a01b03868116600483015292935060009290911690634ece7f9a90602401602060405180830381865afa15801562002d37573d6000803e3d6000fd5b505050506040513d601f19601f8201168201806040525081019062002d5d919062003809565b9050600062002d6c8562002da6565b9050670de0b6b3a76400008162002d84848662003841565b62002d90919062003841565b62002d9c919062003863565b9695505050505050565b600d546040516226e8a360e31b81526001600160a01b0383811660048301526000928392911690630137451890602401602060405180830381865afa15801562002df4573d6000803e3d6000fd5b505050506040513d601f19601f8201168201806040525081019062002e1a919062003ba7565b90506000816001600160a01b031663feaf968c6040518163ffffffff1660e01b815260040160a060405180830381865afa15801562002e5d573d6000803e3d6000fd5b505050506040513d601f19601f8201168201806040525081019062002e83919062003be2565b5091979650505050505050565b62002ea4826001600160a01b0316620030fc565b62002ef25760405162461bcd60e51b815260206004820152601f60248201527f5361666545524332303a2063616c6c20746f206e6f6e2d636f6e7472616374006044820152606401620007f2565b600080836001600160a01b03168360405162002f0f919062003c37565b6000604051808303816000865af19150503d806000811462002f4e576040519150601f19603f3d011682016040523d82523d6000602084013e62002f53565b606091505b50915091508162002fa75760405162461bcd60e51b815260206004820181905260248201527f5361666545524332303a206c6f772d6c6576656c2063616c6c206661696c65646044820152606401620007f2565b805115620026c9578080602001905181019062002fc59190620035b6565b620026c95760405162461bcd60e51b815260206004820152602a60248201527f5361666545524332303a204552433230206f7065726174696f6e20646964206e6044820152691bdd081cdd58d8d9595960b21b6064820152608401620007f2565b600082158062003034575081155b15620030435750600062002b22565b816200305d60026b033b2e3c9fd0803ce800000062003863565b6200306b906000196200359c565b62003077919062003863565b83111560405180604001604052806002815260200161068760f31b81525090620030b65760405162461bcd60e51b8152600401620007f2919062003b72565b506b033b2e3c9fd0803ce8000000620030d160028262003863565b620030dd848662003841565b620030e99190620035d6565b620030f5919062003863565b9392505050565b6000813f7fc5d2460186f7233c927e7db2dcc703c0e500b653ca82273b7bfad8045d85a4708181148015906200313157508115155b949350505050565b610e428062003c5683390190565b610e788062004a9883390190565b6001600160a01b03811681146200316b57600080fd5b50565b6000602082840312156200318157600080fd5b8135620030f58162003155565b60008060408385031215620031a257600080fd5b8235620031af8162003155565b946020939093013593505050565b60008060008060808587031215620031d457600080fd5b8435620031e18162003155565b93506020850135620031f38162003155565b92506040850135915060608501356200320c8162003155565b939692955090935050565b600080604083850312156200322b57600080fd5b8235620032388162003155565b915060208301356200324a8162003155565b809150509250929050565b600081518084526020808501945080840160005b83811015620032905781516001600160a01b03168752958201959082019060010162003269565b509495945050505050565b602081526000620030f5602083018462003255565b60008083601f840112620032c357600080fd5b50813567ffffffffffffffff811115620032dc57600080fd5b6020830191508360208260051b8501011115620032f857600080fd5b9250929050565b600080600080600080600080600060a08a8c0312156200331e57600080fd5b893567ffffffffffffffff808211156200333757600080fd5b620033458d838e01620032b0565b909b50995060208c01359150808211156200335f57600080fd5b6200336d8d838e01620032b0565b909950975060408c01359150808211156200338757600080fd5b620033958d838e01620032b0565b909750955060608c01359150620033ac8262003155565b90935060808b01359080821115620033c357600080fd5b818c0191508c601f830112620033d857600080fd5b813581811115620033e857600080fd5b8d6020828501011115620033fb57600080fd5b6020830194508093505050509295985092959850929598565b6000806000606084860312156200342a57600080fd5b8335620034378162003155565b9250602084013591506040840135620034508162003155565b809150509250925092565b6000806000606084860312156200347157600080fd5b83356200347e8162003155565b92506020840135620034908162003155565b929592945050506040919091013590565b80151581146200316b57600080fd5b60008060408385031215620034c457600080fd5b8235620034d18162003155565b915060208301356200324a81620034a1565b6020808252601f908201527f5265656e7472616e637947756172643a207265656e7472616e742063616c6c00604082015260600190565b6020808252818101527f416d6f756e74206d7573742062652067726561746572207468616e207a65726f604082015260600190565b6020808252601b908201527f496e73756666696369656e7420626f72726f772062616c616e63650000000000604082015260600190565b634e487b7160e01b600052601160045260246000fd5b600082821015620035b157620035b162003586565b500390565b600060208284031215620035c957600080fd5b8151620030f581620034a1565b60008219821115620035ec57620035ec62003586565b500190565b805160ff811681146200360357600080fd5b919050565b6000602082840312156200361b57600080fd5b620030f582620035f1565b60a0808252600a908201526920b0bb32902a37b5b2b760b11b60c082015260e0602082018190526006908201526530aa37b5b2b760d11b61010082015260ff9390931660408401526001600160a01b0391821660608401521660808201526101200190565b60a0808252601390820152722b30b934b0b13632902232b13a102a37b5b2b760691b60c082015260e060208201819052600a90820152693b2232b13a2a37b5b2b760b11b61010082015260ff9390931660408401526001600160a01b0391821660608401521660808201526101200190565b634e487b7160e01b600052604160045260246000fd5b8051620036038162003155565b600060208083850312156200373457600080fd5b825167ffffffffffffffff808211156200374d57600080fd5b818501915085601f8301126200376257600080fd5b815181811115620037775762003777620036fd565b8060051b604051601f19603f830116810181811085821117156200379f576200379f620036fd565b604052918252848201925083810185019188831115620037be57600080fd5b938501935b82851015620037e757620037d78562003713565b84529385019392850192620037c3565b98975050505050505050565b634e487b7160e01b600052603260045260246000fd5b6000602082840312156200381c57600080fd5b5051919050565b60006000198214156200383a576200383a62003586565b5060010190565b60008160001904831182151516156200385e576200385e62003586565b500290565b6000826200388157634e487b7160e01b600052601260045260246000fd5b500490565b600081518084526020808501945080840160005b8381101562003290578151875295820195908201906001016200389a565b600060018060a01b03808916835260e06020840152620038dc60e084018962003255565b8381036040850152620038f0818962003886565b9050838103606085015262003906818862003886565b959091166080840152505080830360a08201526000835261ffff9190911660c090910152602001949350505050565b600181815b80851115620039765781600019048211156200395a576200395a62003586565b808516156200396857918102915b93841c93908002906200393a565b509250929050565b6000826200398f5750600162002b22565b816200399e5750600062002b22565b8160018114620039b75760028114620039c257620039e2565b600191505062002b22565b60ff841115620039d657620039d662003586565b50506001821b62002b22565b5060208310610133831016604e8410600b841016171562003a07575081810a62002b22565b62003a13838362003935565b806000190482111562003a2a5762003a2a62003586565b029392505050565b6000620030f583836200397e565b80516001600160801b03811681146200360357600080fd5b60008060008060008060008060008060006101608c8e03121562003a7b57600080fd5b8b519a5062003a8d60208d0162003a40565b995062003a9d60408d0162003a40565b985062003aad60608d0162003a40565b975062003abd60808d0162003a40565b965062003acd60a08d0162003a40565b955060c08c015164ffffffffff8116811462003ae857600080fd5b60e08d015190955062003afb8162003155565b6101008d015190945062003b0f8162003155565b925062003b206101208d0162003713565b915062003b316101408d01620035f1565b90509295989b509295989b9093969950565b60005b8381101562003b6057818101518382015260200162003b46565b83811115620026c95750506000910152565b602081526000825180602084015262003b9381604085016020870162003b43565b601f01601f19169190910160400192915050565b60006020828403121562003bba57600080fd5b8151620030f58162003155565b805169ffffffffffffffffffff811681146200360357600080fd5b600080600080600060a0868803121562003bfb57600080fd5b62003c068662003bc7565b945060208601519350604086015192506060860151915062003c2b6080870162003bc7565b90509295509295909350565b6000825162003c4b81846020870162003b43565b919091019291505056fe60806040523480156200001157600080fd5b5060405162000e4238038062000e4283398101604081905262000034916200023e565b845162000049906000906020880190620000ae565b5083516200005f906001906020870190620000ae565b506002805460ff949094166001600160a81b0319909416939093176101006001600160a01b039384160217909255600380546001600160a01b0319169290911691909117905550620003249050565b828054620000bc90620002e7565b90600052602060002090601f016020900481019282620000e057600085556200012b565b82601f10620000fb57805160ff19168380011785556200012b565b828001600101855582156200012b579182015b828111156200012b5782518255916020019190600101906200010e565b50620001399291506200013d565b5090565b5b808211156200013957600081556001016200013e565b634e487b7160e01b600052604160045260246000fd5b600082601f8301126200017c57600080fd5b81516001600160401b038082111562000199576200019962000154565b604051601f8301601f19908116603f01168101908282118183101715620001c457620001c462000154565b81604052838152602092508683858801011115620001e157600080fd5b600091505b83821015620002055785820183015181830184015290820190620001e6565b83821115620002175760008385830101525b9695505050505050565b80516001600160a01b03811681146200023957600080fd5b919050565b600080600080600060a086880312156200025757600080fd5b85516001600160401b03808211156200026f57600080fd5b6200027d89838a016200016a565b965060208801519150808211156200029457600080fd5b50620002a3888289016200016a565b945050604086015160ff81168114620002bb57600080fd5b9250620002cb6060870162000221565b9150620002db6080870162000221565b90509295509295909350565b600181811c90821680620002fc57607f821691505b602082108114156200031e57634e487b7160e01b600052602260045260246000fd5b50919050565b610b0e80620003346000396000f3fe608060405234801561001057600080fd5b50600436106100f55760003560e01c806370a0823111610097578063a457c2d711610066578063a457c2d71461021b578063a9059cbb1461022e578063dd62ed3e14610241578063e80db5db1461027a57600080fd5b806370a08231146101a75780637158da7c146101d057806395d89b41146102005780639dc29fac1461020857600080fd5b806323b872dd116100d357806323b872dd1461014d578063313ce56714610160578063395093511461017f57806340c10f191461019257600080fd5b806306fdde03146100fa578063095ea7b31461011857806318160ddd1461013b575b600080fd5b61010261028d565b60405161010f919061092c565b60405180910390f35b61012b61012636600461099d565b61031b565b604051901515815260200161010f565b6006545b60405190815260200161010f565b61012b61015b3660046109c7565b610331565b60025461016d9060ff1681565b60405160ff909116815260200161010f565b61012b61018d36600461099d565b610383565b6101a56101a036600461099d565b6103ba565b005b61013f6101b5366004610a03565b6001600160a01b031660009081526004602052604090205490565b6002546101e89061010090046001600160a01b031681565b6040516001600160a01b03909116815260200161010f565b610102610427565b6101a561021636600461099d565b610434565b61012b61022936600461099d565b610498565b61012b61023c36600461099d565b6104cf565b61013f61024f366004610a25565b6001600160a01b03918216600090815260056020908152604080832093909416825291909152205490565b6003546101e8906001600160a01b031681565b6000805461029a90610a58565b80601f01602080910402602001604051908101604052809291908181526020018280546102c690610a58565b80156103135780601f106102e857610100808354040283529160200191610313565b820191906000526020600020905b8154815290600101906020018083116102f657829003601f168201915b505050505081565b60006103283384846104dc565b50600192915050565b600061033e848484610601565b6001600160a01b038416600090815260056020908152604080832033808552925290912054610379918691610374908690610aa9565b6104dc565b5060019392505050565b3360008181526005602090815260408083206001600160a01b03871684529091528120549091610328918590610374908690610ac0565b6003546001600160a01b031633146104195760405162461bcd60e51b815260206004820152601f60248201527f43616c6c6572206973206e6f742074686520636f726520636f6e74726163740060448201526064015b60405180910390fd5b6104238282610768565b5050565b6001805461029a90610a58565b6003546001600160a01b0316331461048e5760405162461bcd60e51b815260206004820152601f60248201527f43616c6c6572206973206e6f742074686520636f726520636f6e7472616374006044820152606401610410565b6104238282610848565b3360008181526005602090815260408083206001600160a01b03871684529091528120549091610328918590610374908690610aa9565b6000610328338484610601565b6001600160a01b03831661053e5760405162461bcd60e51b8152602060048201526024808201527f45524332303a20617070726f76652066726f6d20746865207a65726f206164646044820152637265737360e01b6064820152608401610410565b6001600160a01b03821661059f5760405162461bcd60e51b815260206004820152602260248201527f45524332303a20617070726f766520746f20746865207a65726f206164647265604482015261737360f01b6064820152608401610410565b6001600160a01b0383811660008181526005602090815260408083209487168084529482529182902085905590518481527f8c5be1e5ebec7d5bd14f71427d1e84f3dd0314c0f7b2291e5b200ac8c7c3b92591015b60405180910390a3505050565b6001600160a01b0383166106655760405162461bcd60e51b815260206004820152602560248201527f45524332303a207472616e736665722066726f6d20746865207a65726f206164604482015264647265737360d81b6064820152608401610410565b6001600160a01b0382166106c75760405162461bcd60e51b815260206004820152602360248201527f45524332303a207472616e7366657220746f20746865207a65726f206164647260448201526265737360e81b6064820152608401610410565b6001600160a01b038316600090815260046020526040812080548392906106ef908490610aa9565b90915550506001600160a01b0382166000908152600460205260408120805483929061071c908490610ac0565b92505081905550816001600160a01b0316836001600160a01b03167fddf252ad1be2c89b69c2b068fc378daa952ba7f163c4a11628f55a4df523b3ef836040516105f491815260200190565b6001600160a01b0382166107be5760405162461bcd60e51b815260206004820152601f60248201527f45524332303a206d696e7420746f20746865207a65726f2061646472657373006044820152606401610410565b80600660008282546107d09190610ac0565b90915550506001600160a01b038216600090815260046020526040812080548392906107fd908490610ac0565b90915550506040518181526001600160a01b038316906000907fddf252ad1be2c89b69c2b068fc378daa952ba7f163c4a11628f55a4df523b3ef906020015b60405180910390a35050565b6001600160a01b0382166108a85760405162461bcd60e51b815260206004820152602160248201527f45524332303a206275726e2066726f6d20746865207a65726f206164647265736044820152607360f81b6064820152608401610410565b6001600160a01b038216600090815260046020526040812080548392906108d0908490610aa9565b9250508190555080600660008282546108e99190610aa9565b90915550506040518181526000906001600160a01b038416907fddf252ad1be2c89b69c2b068fc378daa952ba7f163c4a11628f55a4df523b3ef9060200161083c565b600060208083528351808285015260005b818110156109595785810183015185820160400152820161093d565b8181111561096b576000604083870101525b50601f01601f1916929092016040019392505050565b80356001600160a01b038116811461099857600080fd5b919050565b600080604083850312156109b057600080fd5b6109b983610981565b946020939093013593505050565b6000806000606084860312156109dc57600080fd5b6109e584610981565b92506109f360208501610981565b9150604084013590509250925092565b600060208284031215610a1557600080fd5b610a1e82610981565b9392505050565b60008060408385031215610a3857600080fd5b610a4183610981565b9150610a4f60208401610981565b90509250929050565b600181811c90821680610a6c57607f821691505b60208210811415610a8d57634e487b7160e01b600052602260045260246000fd5b50919050565b634e487b7160e01b600052601160045260246000fd5b600082821015610abb57610abb610a93565b500390565b60008219821115610ad357610ad3610a93565b50019056fea2646970667358221220af9feb291a1cea9102ba6f573b8990629604a8ebc2458f5667dda77b98847feb64736f6c634300080c003360806040523480156200001157600080fd5b5060405162000e7838038062000e7883398101604081905262000034916200023e565b845162000049906000906020880190620000ae565b5083516200005f906001906020870190620000ae565b506002805460ff949094166001600160a81b0319909416939093176101006001600160a01b039384160217909255600380546001600160a01b0319169290911691909117905550620003249050565b828054620000bc90620002e7565b90600052602060002090601f016020900481019282620000e057600085556200012b565b82601f10620000fb57805160ff19168380011785556200012b565b828001600101855582156200012b579182015b828111156200012b5782518255916020019190600101906200010e565b50620001399291506200013d565b5090565b5b808211156200013957600081556001016200013e565b634e487b7160e01b600052604160045260246000fd5b600082601f8301126200017c57600080fd5b81516001600160401b038082111562000199576200019962000154565b604051601f8301601f19908116603f01168101908282118183101715620001c457620001c462000154565b81604052838152602092508683858801011115620001e157600080fd5b600091505b83821015620002055785820183015181830184015290820190620001e6565b83821115620002175760008385830101525b9695505050505050565b80516001600160a01b03811681146200023957600080fd5b919050565b600080600080600060a086880312156200025757600080fd5b85516001600160401b03808211156200026f57600080fd5b6200027d89838a016200016a565b965060208801519150808211156200029457600080fd5b50620002a3888289016200016a565b945050604086015160ff81168114620002bb57600080fd5b9250620002cb6060870162000221565b9150620002db6080870162000221565b90509295509295909350565b600181811c90821680620002fc57607f821691505b602082108114156200031e57634e487b7160e01b600052602260045260246000fd5b50919050565b610b4480620003346000396000f3fe608060405234801561001057600080fd5b50600436106101005760003560e01c806370a0823111610097578063a457c2d711610066578063a457c2d714610239578063a9059cbb1461024c578063dd62ed3e1461025f578063e80db5db1461029857600080fd5b806370a08231146101c55780637158da7c146101ee57806395d89b411461021e5780639dc29fac1461022657600080fd5b8063313ce567116100d3578063313ce5671461016b578063395093511461018a57806340c10f191461019d57806342842e0e146101b257600080fd5b806306fdde0314610105578063095ea7b31461012357806318160ddd1461014657806323b872dd14610158575b600080fd5b61010d6102ab565b60405161011a9190610962565b60405180910390f35b6101366101313660046109d3565b610339565b604051901515815260200161011a565b6006545b60405190815260200161011a565b6101366101663660046109fd565b61034f565b6002546101789060ff1681565b60405160ff909116815260200161011a565b6101366101983660046109d3565b6103a1565b6101b06101ab3660046109d3565b6103d8565b005b6101366101c03660046109fd565b610445565b61014a6101d3366004610a39565b6001600160a01b031660009081526004602052604090205490565b6002546102069061010090046001600160a01b031681565b6040516001600160a01b03909116815260200161011a565b61010d61045d565b6101b06102343660046109d3565b61046a565b6101366102473660046109d3565b6104ce565b61013661025a3660046109d3565b610505565b61014a61026d366004610a5b565b6001600160a01b03918216600090815260056020908152604080832093909416825291909152205490565b600354610206906001600160a01b031681565b600080546102b890610a8e565b80601f01602080910402602001604051908101604052809291908181526020018280546102e490610a8e565b80156103315780601f1061030657610100808354040283529160200191610331565b820191906000526020600020905b81548152906001019060200180831161031457829003601f168201915b505050505081565b6000610346338484610512565b50600192915050565b600061035c848484610637565b6001600160a01b038416600090815260056020908152604080832033808552925290912054610397918691610392908690610adf565b610512565b5060019392505050565b3360008181526005602090815260408083206001600160a01b03871684529091528120549091610346918590610392908690610af6565b6003546001600160a01b031633146104375760405162461bcd60e51b815260206004820152601f60248201527f43616c6c6572206973206e6f742074686520636f726520636f6e74726163740060448201526064015b60405180910390fd5b610441828261079e565b5050565b600061045284848461034f565b506001949350505050565b600180546102b890610a8e565b6003546001600160a01b031633146104c45760405162461bcd60e51b815260206004820152601f60248201527f43616c6c6572206973206e6f742074686520636f726520636f6e747261637400604482015260640161042e565b610441828261087e565b3360008181526005602090815260408083206001600160a01b03871684529091528120549091610346918590610392908690610adf565b6000610346338484610637565b6001600160a01b0383166105745760405162461bcd60e51b8152602060048201526024808201527f45524332303a20617070726f76652066726f6d20746865207a65726f206164646044820152637265737360e01b606482015260840161042e565b6001600160a01b0382166105d55760405162461bcd60e51b815260206004820152602260248201527f45524332303a20617070726f766520746f20746865207a65726f206164647265604482015261737360f01b606482015260840161042e565b6001600160a01b0383811660008181526005602090815260408083209487168084529482529182902085905590518481527f8c5be1e5ebec7d5bd14f71427d1e84f3dd0314c0f7b2291e5b200ac8c7c3b92591015b60405180910390a3505050565b6001600160a01b03831661069b5760405162461bcd60e51b815260206004820152602560248201527f45524332303a207472616e736665722066726f6d20746865207a65726f206164604482015264647265737360d81b606482015260840161042e565b6001600160a01b0382166106fd5760405162461bcd60e51b815260206004820152602360248201527f45524332303a207472616e7366657220746f20746865207a65726f206164647260448201526265737360e81b606482015260840161042e565b6001600160a01b03831660009081526004602052604081208054839290610725908490610adf565b90915550506001600160a01b03821660009081526004602052604081208054839290610752908490610af6565b92505081905550816001600160a01b0316836001600160a01b03167fddf252ad1be2c89b69c2b068fc378daa952ba7f163c4a11628f55a4df523b3ef8360405161062a91815260200190565b6001600160a01b0382166107f45760405162461bcd60e51b815260206004820152601f60248201527f45524332303a206d696e7420746f20746865207a65726f206164647265737300604482015260640161042e565b80600660008282546108069190610af6565b90915550506001600160a01b03821660009081526004602052604081208054839290610833908490610af6565b90915550506040518181526001600160a01b038316906000907fddf252ad1be2c89b69c2b068fc378daa952ba7f163c4a11628f55a4df523b3ef906020015b60405180910390a35050565b6001600160a01b0382166108de5760405162461bcd60e51b815260206004820152602160248201527f45524332303a206275726e2066726f6d20746865207a65726f206164647265736044820152607360f81b606482015260840161042e565b6001600160a01b03821660009081526004602052604081208054839290610906908490610adf565b92505081905550806006600082825461091f9190610adf565b90915550506040518181526000906001600160a01b038416907fddf252ad1be2c89b69c2b068fc378daa952ba7f163c4a11628f55a4df523b3ef90602001610872565b600060208083528351808285015260005b8181101561098f57858101830151858201604001528201610973565b818111156109a1576000604083870101525b50601f01601f1916929092016040019392505050565b80356001600160a01b03811681146109ce57600080fd5b919050565b600080604083850312156109e657600080fd5b6109ef836109b7565b946020939093013593505050565b600080600060608486031215610a1257600080fd5b610a1b846109b7565b9250610a29602085016109b7565b9150604084013590509250925092565b600060208284031215610a4b57600080fd5b610a54826109b7565b9392505050565b60008060408385031215610a6e57600080fd5b610a77836109b7565b9150610a85602084016109b7565b90509250929050565b600181811c90821680610aa257607f821691505b60208210811415610ac357634e487b7160e01b600052602260045260246000fd5b50919050565b634e487b7160e01b600052601160045260246000fd5b600082821015610af157610af1610ac9565b500390565b60008219821115610b0957610b09610ac9565b50019056fea264697066735822122072ef19d7a24557220cf8ced41c12befc427e9e49ba3c179cfb88ef24a7921b1264736f6c634300080c0033a2646970667358221220fac01ed19cc9f4b3bb084ab5e642462b60d76832aef8e02026b03aeeacb19fcc64736f6c634300080c0033",
  "linkReferences": {},
  "deployedLinkReferences": {}
}